{
  "contractName": "PuppyBreeding",
  "abi": [
    {
      "constant": true,
      "inputs": [
        {
          "name": "",
          "type": "uint256"
        }
      ],
      "name": "puppyIndexToOwner",
      "outputs": [
        {
          "name": "",
          "type": "address"
        }
      ],
      "payable": false,
      "stateMutability": "view",
      "type": "function"
    },
    {
      "constant": true,
      "inputs": [],
      "name": "name",
      "outputs": [
        {
          "name": "",
          "type": "string"
        }
      ],
      "payable": false,
      "stateMutability": "view",
      "type": "function"
    },
    {
      "constant": false,
      "inputs": [
        {
          "name": "_to",
          "type": "address"
        },
        {
          "name": "_tokenId",
          "type": "uint256"
        }
      ],
      "name": "approve",
      "outputs": [],
      "payable": false,
      "stateMutability": "nonpayable",
      "type": "function"
    },
    {
      "constant": true,
      "inputs": [],
      "name": "implementsERC721",
      "outputs": [
        {
          "name": "",
          "type": "bool"
        }
      ],
      "payable": false,
      "stateMutability": "pure",
      "type": "function"
    },
    {
      "constant": true,
      "inputs": [],
      "name": "totalSupply",
      "outputs": [
        {
          "name": "total",
          "type": "uint256"
        }
      ],
      "payable": false,
      "stateMutability": "view",
      "type": "function"
    },
    {
      "constant": false,
      "inputs": [
        {
          "name": "_from",
          "type": "address"
        },
        {
          "name": "_to",
          "type": "address"
        },
        {
          "name": "_tokenId",
          "type": "uint256"
        }
      ],
      "name": "transferFrom",
      "outputs": [],
      "payable": false,
      "stateMutability": "nonpayable",
      "type": "function"
    },
    {
      "constant": true,
      "inputs": [],
      "name": "BossAddress",
      "outputs": [
        {
          "name": "",
          "type": "address"
        }
      ],
      "payable": false,
      "stateMutability": "view",
      "type": "function"
    },
    {
      "constant": false,
      "inputs": [],
      "name": "unpause",
      "outputs": [],
      "payable": false,
      "stateMutability": "nonpayable",
      "type": "function"
    },
    {
      "constant": false,
      "inputs": [
        {
          "name": "_addr",
          "type": "address"
        },
        {
          "name": "_sireId",
          "type": "uint256"
        }
      ],
      "name": "approveSiring",
      "outputs": [],
      "payable": false,
      "stateMutability": "nonpayable",
      "type": "function"
    },
    {
      "constant": true,
      "inputs": [],
      "name": "paused",
      "outputs": [
        {
          "name": "",
          "type": "bool"
        }
      ],
      "payable": false,
      "stateMutability": "view",
      "type": "function"
    },
    {
      "constant": false,
      "inputs": [],
      "name": "withdrawBalance",
      "outputs": [],
      "payable": false,
      "stateMutability": "nonpayable",
      "type": "function"
    },
    {
      "constant": true,
      "inputs": [
        {
          "name": "_tokenId",
          "type": "uint256"
        }
      ],
      "name": "ownerOf",
      "outputs": [
        {
          "name": "owner",
          "type": "address"
        }
      ],
      "payable": false,
      "stateMutability": "view",
      "type": "function"
    },
    {
      "constant": false,
      "inputs": [
        {
          "name": "matronId",
          "type": "uint256"
        },
        {
          "name": "sireId",
          "type": "uint256"
        }
      ],
      "name": "breedWith",
      "outputs": [],
      "payable": false,
      "stateMutability": "nonpayable",
      "type": "function"
    },
    {
      "constant": true,
      "inputs": [
        {
          "name": "_owner",
          "type": "address"
        }
      ],
      "name": "balanceOf",
      "outputs": [
        {
          "name": "",
          "type": "uint256"
        }
      ],
      "payable": false,
      "stateMutability": "view",
      "type": "function"
    },
    {
      "constant": true,
      "inputs": [],
      "name": "cooldown",
      "outputs": [
        {
          "name": "",
          "type": "uint32"
        }
      ],
      "payable": false,
      "stateMutability": "view",
      "type": "function"
    },
    {
      "constant": false,
      "inputs": [],
      "name": "pause",
      "outputs": [],
      "payable": false,
      "stateMutability": "nonpayable",
      "type": "function"
    },
    {
      "constant": true,
      "inputs": [],
      "name": "symbol",
      "outputs": [
        {
          "name": "",
          "type": "string"
        }
      ],
      "payable": false,
      "stateMutability": "view",
      "type": "function"
    },
    {
      "constant": false,
      "inputs": [
        {
          "name": "_newboss",
          "type": "address"
        }
      ],
      "name": "setBoss",
      "outputs": [],
      "payable": false,
      "stateMutability": "nonpayable",
      "type": "function"
    },
    {
      "constant": false,
      "inputs": [
        {
          "name": "_to",
          "type": "address"
        },
        {
          "name": "_tokenId",
          "type": "uint256"
        }
      ],
      "name": "transfer",
      "outputs": [],
      "payable": false,
      "stateMutability": "nonpayable",
      "type": "function"
    },
    {
      "constant": true,
      "inputs": [],
      "name": "autoBirthFee",
      "outputs": [
        {
          "name": "",
          "type": "uint256"
        }
      ],
      "payable": false,
      "stateMutability": "view",
      "type": "function"
    },
    {
      "constant": true,
      "inputs": [
        {
          "name": "",
          "type": "uint256"
        }
      ],
      "name": "puppyIndexToApproved",
      "outputs": [
        {
          "name": "",
          "type": "address"
        }
      ],
      "payable": false,
      "stateMutability": "view",
      "type": "function"
    },
    {
      "constant": false,
      "inputs": [
        {
          "name": "_matronId",
          "type": "uint256"
        }
      ],
      "name": "giveBrith",
      "outputs": [
        {
          "name": "",
          "type": "uint256"
        }
      ],
      "payable": false,
      "stateMutability": "nonpayable",
      "type": "function"
    },
    {
      "constant": true,
      "inputs": [
        {
          "name": "_puppyId",
          "type": "uint256"
        }
      ],
      "name": "isReadyToBreed",
      "outputs": [
        {
          "name": "",
          "type": "bool"
        }
      ],
      "payable": false,
      "stateMutability": "view",
      "type": "function"
    },
    {
      "constant": true,
      "inputs": [
        {
          "name": "",
          "type": "uint256"
        }
      ],
      "name": "sireAllowToAddress",
      "outputs": [
        {
          "name": "",
          "type": "address"
        }
      ],
      "payable": false,
      "stateMutability": "view",
      "type": "function"
    },
    {
      "anonymous": false,
      "inputs": [
        {
          "indexed": false,
          "name": "owner",
          "type": "address"
        },
        {
          "indexed": false,
          "name": "matronId",
          "type": "uint256"
        },
        {
          "indexed": false,
          "name": "sireId",
          "type": "uint256"
        }
      ],
      "name": "Pregnant",
      "type": "event"
    },
    {
      "anonymous": false,
      "inputs": [
        {
          "indexed": true,
          "name": "from",
          "type": "address"
        },
        {
          "indexed": true,
          "name": "to",
          "type": "address"
        },
        {
          "indexed": true,
          "name": "tokenId",
          "type": "uint256"
        }
      ],
      "name": "Transfer",
      "type": "event"
    },
    {
      "anonymous": false,
      "inputs": [
        {
          "indexed": true,
          "name": "owner",
          "type": "address"
        },
        {
          "indexed": true,
          "name": "approved",
          "type": "address"
        },
        {
          "indexed": true,
          "name": "tokenId",
          "type": "uint256"
        }
      ],
      "name": "Approval",
      "type": "event"
    },
    {
      "anonymous": false,
      "inputs": [
        {
          "indexed": false,
          "name": "NewPuppyOwner",
          "type": "address"
        },
        {
          "indexed": false,
          "name": "PuppyId",
          "type": "uint256"
        },
        {
          "indexed": false,
          "name": "MatronId",
          "type": "uint256"
        },
        {
          "indexed": false,
          "name": "SireId",
          "type": "uint256"
        },
        {
          "indexed": false,
          "name": "Generation",
          "type": "uint256"
        }
      ],
      "name": "NewBrith",
      "type": "event"
    }
  ],
  "bytecode": "0x606060405260008060146101000a81548160ff021916908315150217905550601e600060156101000a81548163ffffffff021916908363ffffffff1602179055506040805190810160405280600d81526020017f43727970746f5075707069657300000000000000000000000000000000000000815250600690805190602001906200008d929190620000f9565b506040805190810160405280600281526020017f435000000000000000000000000000000000000000000000000000000000000081525060079080519060200190620000db929190620000f9565b5066038d7ea4c680006008553415620000f357600080fd5b620001a8565b828054600181600116156101000203166002900490600052602060002090601f016020900481019282601f106200013c57805160ff19168380011785556200016d565b828001600101855582156200016d579182015b828111156200016c5782518255916020019190600101906200014f565b5b5090506200017c919062000180565b5090565b620001a591905b80821115620001a157600081600090555060010162000187565b5090565b90565b611c0e80620001b86000396000f30060606040526004361061013d576000357c0100000000000000000000000000000000000000000000000000000000900463ffffffff168062eab0e31461014257806306fdde03146101a5578063095ea7b3146102335780631051db341461027557806318160ddd146102a257806323b872dd146102cb57806336e40d131461032c5780633f4ba83a146103815780634dfff04f146103965780635c975abb146103d85780635fd8c710146104055780636352211e1461041a5780637004fb841461047d57806370a08231146104a9578063787a08a6146104f65780638456cb591461052b57806395d89b4114610540578063a7efbc8e146105ce578063a9059cbb14610607578063b0c35c0514610649578063ba94042d14610672578063c50398f9146106d5578063d3e6f49f1461070c578063e227f73214610747575b600080fd5b341561014d57600080fd5b61016360048080359060200190919050506107aa565b604051808273ffffffffffffffffffffffffffffffffffffffff1673ffffffffffffffffffffffffffffffffffffffff16815260200191505060405180910390f35b34156101b057600080fd5b6101b86107dd565b6040518080602001828103825283818151815260200191508051906020019080838360005b838110156101f85780820151818401526020810190506101dd565b50505050905090810190601f1680156102255780820380516001836020036101000a031916815260200191505b509250505060405180910390f35b341561023e57600080fd5b610273600480803573ffffffffffffffffffffffffffffffffffffffff1690602001909190803590602001909190505061087b565b005b341561028057600080fd5b61028861095d565b604051808215151515815260200191505060405180910390f35b34156102ad57600080fd5b6102b5610966565b6040518082815260200191505060405180910390f35b34156102d657600080fd5b61032a600480803573ffffffffffffffffffffffffffffffffffffffff1690602001909190803573ffffffffffffffffffffffffffffffffffffffff16906020019091908035906020019091905050610975565b005b341561033757600080fd5b61033f610a5f565b604051808273ffffffffffffffffffffffffffffffffffffffff1673ffffffffffffffffffffffffffffffffffffffff16815260200191505060405180910390f35b341561038c57600080fd5b610394610a84565b005b34156103a157600080fd5b6103d6600480803573ffffffffffffffffffffffffffffffffffffffff16906020019091908035906020019091905050610b16565b005b34156103e357600080fd5b6103eb610b9d565b604051808215151515815260200191505060405180910390f35b341561041057600080fd5b610418610bb0565b005b341561042557600080fd5b61043b6004808035906020019091905050610c85565b604051808273ffffffffffffffffffffffffffffffffffffffff1673ffffffffffffffffffffffffffffffffffffffff16815260200191505060405180910390f35b341561048857600080fd5b6104a76004808035906020019091908035906020019091905050610cfe565b005b34156104b457600080fd5b6104e0600480803573ffffffffffffffffffffffffffffffffffffffff16906020019091905050610e78565b6040518082815260200191505060405180910390f35b341561050157600080fd5b610509610ec1565b604051808263ffffffff1663ffffffff16815260200191505060405180910390f35b341561053657600080fd5b61053e610ed7565b005b341561054b57600080fd5b610553610f6b565b6040518080602001828103825283818151815260200191508051906020019080838360005b83811015610593578082015181840152602081019050610578565b50505050905090810190601f1680156105c05780820380516001836020036101000a031916815260200191505b509250505060405180910390f35b34156105d957600080fd5b610605600480803573ffffffffffffffffffffffffffffffffffffffff16906020019091905050611009565b005b341561061257600080fd5b610647600480803573ffffffffffffffffffffffffffffffffffffffff169060200190919080359060200190919050506110e3565b005b341561065457600080fd5b61065c61115f565b6040518082815260200191505060405180910390f35b341561067d57600080fd5b6106936004808035906020019091905050611165565b604051808273ffffffffffffffffffffffffffffffffffffffff1673ffffffffffffffffffffffffffffffffffffffff16815260200191505060405180910390f35b34156106e057600080fd5b6106f66004808035906020019091905050611198565b6040518082815260200191505060405180910390f35b341561071757600080fd5b61072d600480803590602001909190505061130e565b604051808215151515815260200191505060405180910390f35b341561075257600080fd5b61076860048080359060200190919050506113a2565b604051808273ffffffffffffffffffffffffffffffffffffffff1673ffffffffffffffffffffffffffffffffffffffff16815260200191505060405180910390f35b60036020528060005260406000206000915054906101000a900473ffffffffffffffffffffffffffffffffffffffff1681565b60068054600181600116156101000203166002900480601f0160208091040260200160405190810160405280929190818152602001828054600181600116156101000203166002900480156108735780601f1061084857610100808354040283529160200191610873565b820191906000526020600020905b81548152906001019060200180831161085657829003601f168201915b505050505081565b600060149054906101000a900460ff1615151561089757600080fd5b6108a133826113d5565b15156108ac57600080fd5b816004600083815260200190815260200160002060006101000a81548173ffffffffffffffffffffffffffffffffffffffff021916908373ffffffffffffffffffffffffffffffffffffffff160217905550808273ffffffffffffffffffffffffffffffffffffffff163373ffffffffffffffffffffffffffffffffffffffff167f8c5be1e5ebec7d5bd14f71427d1e84f3dd0314c0f7b2291e5b200ac8c7c3b92560405160405180910390a45050565b60006001905090565b60006001808054905003905090565b600060149054906101000a900460ff1615151561099157600080fd5b3373ffffffffffffffffffffffffffffffffffffffff166004600083815260200190815260200160002060009054906101000a900473ffffffffffffffffffffffffffffffffffffffff1673ffffffffffffffffffffffffffffffffffffffff161415156109fe57600080fd5b610a0883826113d5565b1515610a1357600080fd5b600073ffffffffffffffffffffffffffffffffffffffff168273ffffffffffffffffffffffffffffffffffffffff1614151515610a4f57600080fd5b610a5a838383611441565b505050565b6000809054906101000a900473ffffffffffffffffffffffffffffffffffffffff1681565b6000809054906101000a900473ffffffffffffffffffffffffffffffffffffffff1673ffffffffffffffffffffffffffffffffffffffff163373ffffffffffffffffffffffffffffffffffffffff16141515610adf57600080fd5b600060149054906101000a900460ff161515610afa57600080fd5b60008060146101000a81548160ff021916908315150217905550565b600060149054906101000a900460ff16151515610b3257600080fd5b610b3c33826113d5565b1515610b4757600080fd5b816005600083815260200190815260200160002060006101000a81548173ffffffffffffffffffffffffffffffffffffffff021916908373ffffffffffffffffffffffffffffffffffffffff1602179055505050565b600060149054906101000a900460ff1681565b6000809054906101000a900473ffffffffffffffffffffffffffffffffffffffff1673ffffffffffffffffffffffffffffffffffffffff163373ffffffffffffffffffffffffffffffffffffffff16141515610c0b57600080fd5b6000809054906101000a900473ffffffffffffffffffffffffffffffffffffffff1673ffffffffffffffffffffffffffffffffffffffff166108fc3073ffffffffffffffffffffffffffffffffffffffff16319081150290604051600060405180830381858888f193505050501515610c8357600080fd5b565b60006003600083815260200190815260200160002060009054906101000a900473ffffffffffffffffffffffffffffffffffffffff169050600073ffffffffffffffffffffffffffffffffffffffff168173ffffffffffffffffffffffffffffffffffffffff1614151515610cf957600080fd5b919050565b600080600060149054906101000a900460ff16151515610d1d57600080fd5b610d2733856113d5565b1515610d3257600080fd5b610d3c84846115a4565b1515610d4757600080fd5b600184815481101515610d5657fe5b90600052602060002090600702019150600183815481101515610d7557fe5b90600052602060002090600702019050610de08260e060405190810160405290816000820154815260200160018201548152602001600282015481526020016003820154815260200160048201548152602001600582015481526020016006820154815250506116b7565b1515610deb57600080fd5b610e468160e060405190810160405290816000820154815260200160018201548152602001600282015481526020016003820154815260200160048201548152602001600582015481526020016006820154815250506116b7565b1515610e5157600080fd5b610e5d828583866116d7565b1515610e6857600080fd5b610e7284846117b8565b50505050565b6000600260008373ffffffffffffffffffffffffffffffffffffffff1673ffffffffffffffffffffffffffffffffffffffff168152602001908152602001600020549050919050565b600060159054906101000a900463ffffffff1681565b6000809054906101000a900473ffffffffffffffffffffffffffffffffffffffff1673ffffffffffffffffffffffffffffffffffffffff163373ffffffffffffffffffffffffffffffffffffffff16141515610f3257600080fd5b600060149054906101000a900460ff16151515610f4e57600080fd5b6001600060146101000a81548160ff021916908315150217905550565b60078054600181600116156101000203166002900480601f0160208091040260200160405190810160405280929190818152602001828054600181600116156101000203166002900480156110015780601f10610fd657610100808354040283529160200191611001565b820191906000526020600020905b815481529060010190602001808311610fe457829003601f168201915b505050505081565b6000809054906101000a900473ffffffffffffffffffffffffffffffffffffffff1673ffffffffffffffffffffffffffffffffffffffff163373ffffffffffffffffffffffffffffffffffffffff1614151561106457600080fd5b600073ffffffffffffffffffffffffffffffffffffffff168173ffffffffffffffffffffffffffffffffffffffff16141515156110a057600080fd5b806000806101000a81548173ffffffffffffffffffffffffffffffffffffffff021916908373ffffffffffffffffffffffffffffffffffffffff16021790555050565b600060149054906101000a900460ff161515156110ff57600080fd5b600073ffffffffffffffffffffffffffffffffffffffff168273ffffffffffffffffffffffffffffffffffffffff161415151561113b57600080fd5b61114533826113d5565b151561115057600080fd5b61115b338383611441565b5050565b60085481565b60046020528060005260406000206000915054906101000a900473ffffffffffffffffffffffffffffffffffffffff1681565b600080600080600080600080600060149054906101000a900460ff161515156111c057600080fd5b6001898154811015156111cf57fe5b90600052602060002090600702019650866005015495506001868154811015156111f557fe5b90600052602060002090600702019450600087600101541415151561121957600080fd5b6112748760e0604051908101604052908160008201548152602001600182015481526020016002820154815260200160038201548152602001600482015481526020016005820154815260200160068201548152505061192c565b151561127f57600080fd5b8660060154935086600601548560060154111561129e57846006015493505b600285600001548860000154018115156112b457fe5b049250600360008a815260200190815260200160002060009054906101000a900473ffffffffffffffffffffffffffffffffffffffff1691506112fd898760018701868661194d565b905080975050505050505050919050565b60008060008311151561132057600080fd5b60018381548110151561132f57fe5b9060005260206000209060070201905061139a8160e060405190810160405290816000820154815260200160018201548152602001600282015481526020016003820154815260200160048201548152602001600582015481526020016006820154815250506116b7565b915050919050565b60056020528060005260406000206000915054906101000a900473ffffffffffffffffffffffffffffffffffffffff1681565b60008273ffffffffffffffffffffffffffffffffffffffff166003600084815260200190815260200160002060009054906101000a900473ffffffffffffffffffffffffffffffffffffffff1673ffffffffffffffffffffffffffffffffffffffff1614905092915050565b600260008373ffffffffffffffffffffffffffffffffffffffff1673ffffffffffffffffffffffffffffffffffffffff16815260200190815260200160002060008154809291906001019190505550816003600083815260200190815260200160002060006101000a81548173ffffffffffffffffffffffffffffffffffffffff021916908373ffffffffffffffffffffffffffffffffffffffff160217905550600073ffffffffffffffffffffffffffffffffffffffff168373ffffffffffffffffffffffffffffffffffffffff1614151561159f57600260008473ffffffffffffffffffffffffffffffffffffffff1673ffffffffffffffffffffffffffffffffffffffff16815260200190815260200160002060008154809291906001900391905055506004600082815260200190815260200160002060006101000a81549073ffffffffffffffffffffffffffffffffffffffff02191690555b505050565b60008060006003600086815260200190815260200160002060009054906101000a900473ffffffffffffffffffffffffffffffffffffffff1691506003600085815260200190815260200160002060009054906101000a900473ffffffffffffffffffffffffffffffffffffffff1690508073ffffffffffffffffffffffffffffffffffffffff168273ffffffffffffffffffffffffffffffffffffffff1614806116ad57508173ffffffffffffffffffffffffffffffffffffffff166005600086815260200190815260200160002060009054906101000a900473ffffffffffffffffffffffffffffffffffffffff1673ffffffffffffffffffffffffffffffffffffffff16145b9250505092915050565b6000808260a001511480156116d0575042826040015111155b9050919050565b6000818414156116ea57600090506117b0565b81856003015414806116ff5750818560040154145b1561170d57600090506117b0565b83836003015414806117225750838360040154145b1561173057600090506117b0565b600083600301541480611747575060008560030154145b1561175557600190506117b0565b846003015483600301541480611772575084600401548360030154145b1561178057600090506117b0565b84600301548360040154148061179d575084600401548360040154145b156117ab57600090506117b0565b600190505b949350505050565b6000806001848154811015156117ca57fe5b906000526020600020906007020191506001838154811015156117e957fe5b9060005260206000209060070201905082826005018190555061180b82611af5565b61181481611af5565b6005600085815260200190815260200160002060006101000a81549073ffffffffffffffffffffffffffffffffffffffff02191690556005600084815260200190815260200160002060006101000a81549073ffffffffffffffffffffffffffffffffffffffff02191690557f6b4808987a5cecdf67d54ca5dc20664fafca80ef7195097800c12549245ab20d6003600086815260200190815260200160002060009054906101000a900473ffffffffffffffffffffffffffffffffffffffff168585604051808473ffffffffffffffffffffffffffffffffffffffff1673ffffffffffffffffffffffffffffffffffffffff168152602001838152602001828152602001935050505060405180910390a150505050565b6000808260a0015114158015611946575042826040015111155b9050919050565b6000611957611b1b565b600063ffffffff881115151561196c57600080fd5b63ffffffff871115151561197f57600080fd5b61ffff861115151561199057600080fd5b60e0604051908101604052808681526020014281526020016000815260200189815260200188815260200160008152602001878152509150600180548060010182816119dc9190611b59565b91600052602060002090600702016000849091909150600082015181600001556020820151816001015560408201518160020155606082015181600301556080820151816004015560a0820151816005015560c082015181600601555050506001808054905003905063ffffffff8111151515611a5857600080fd5b7fe6f1819515ac756027ac2607ca2442ef24fabea640f62afb9e2848050883e18784828a8a8a604051808673ffffffffffffffffffffffffffffffffffffffff1673ffffffffffffffffffffffffffffffffffffffff1681526020018581526020018481526020018381526020018281526020019550505050505060405180910390a1611ae760008583611441565b809250505095945050505050565b600060159054906101000a900463ffffffff1663ffffffff164201816002018190555050565b60e060405190810160405280600081526020016000815260200160008152602001600081526020016000815260200160008152602001600081525090565b815481835581811511611b8657600702816007028360005260206000209182019101611b859190611b8b565b5b505050565b611bdf91905b80821115611bdb5760008082016000905560018201600090556002820160009055600382016000905560048201600090556005820160009055600682016000905550600701611b91565b5090565b905600a165627a7a72305820a13f151468a0be697ef9a132b0cf28fcc6489b5cd54e0c7cae5f46d3a2990fb70029",
  "source": "pragma solidity ^0.4.18;\n\nimport './PuppyOwnership.sol';\n\ncontract PuppyBreeding is PuppyOwnership {\n\n  uint256 public autoBirthFee = 1000000 * 1000000000;\n\n  event Pregnant(address owner, uint256 matronId, uint256 sireId);\n\n  function _isReadyToBreed(Puppy _puppy) internal view returns (bool) {\n    return (_puppy.siringWithId == 0) && (_puppy.cooldownEndTime <= now);\n  }\n\n  function _isSringPermitted(uint256 _matronId, uint256 _sireId) internal view returns (bool) {\n    address matronOwner = puppyIndexToOwner[_matronId];\n    address sireOwner = puppyIndexToOwner[_sireId];\n    return (matronOwner == sireOwner || sireAllowToAddress[_sireId] == matronOwner);\n  }\n\n  function _triggleCooldown(Puppy storage _puppy) internal {\n    _puppy.cooldownEndTime = uint256(now + cooldown);\n  }\n\n  function approveSiring(address _addr, uint256 _sireId) public whenNotPaused {\n    require(_own(msg.sender, _sireId));\n    sireAllowToAddress[_sireId] = _addr;\n  }\n\n  function _isReadyToGiveBirth(Puppy _matron) private view returns (bool) {\n    return (_matron.siringWithId != 0) && (_matron.cooldownEndTime <= now);\n  }\n\n  function isReadyToBreed(uint256 _puppyId) public view returns (bool) {\n    require(_puppyId > 0);\n    Puppy storage pup = puppies[_puppyId];\n    return _isReadyToBreed(pup);\n  }\n\n  function relationVoild(Puppy storage _matron,uint256 _matronId, Puppy storage _sire, uint256 _sireId) private view returns (bool){\n    if   (_matronId == _sireId) {\n      return false;\n    }\n    if (_matron.matronId == _sireId || _matron.sireId == _sireId) {\n      return false;\n    }\n    if (_sire.matronId == _matronId || _sire.sireId == _matronId) {\n      return false;\n    }\n    if (_sire.matronId == 0 || _matron.matronId == 0) {\n      return true;\n    }\n    if (_sire.matronId == _matron.matronId || _sire.matronId == _matron.sireId) {\n      return false;\n    }\n    if (_sire.sireId == _matron.matronId || _sire.sireId == _matron.sireId) {\n      return false;\n    }\n    return true;\n  }\n\n  function breedWith(uint256 matronId, uint256 sireId) public whenNotPaused {\n    require(_own(msg.sender, matronId));\n    require(_isSringPermitted(matronId, sireId));\n\n    Puppy storage matron = puppies[matronId];\n    Puppy storage sire = puppies[sireId];\n\n    require(_isReadyToBreed(matron));\n    require(_isReadyToBreed(sire));\n\n    require(relationVoild(matron, matronId, sire, sireId));\n\n    _breedWith(matronId, sireId);\n  }\n\n  function _breedWith(uint256 _matronId, uint256 _sireId) internal {\n    Puppy storage matron = puppies[_matronId];\n    Puppy storage sire = puppies[_sireId];\n\n    matron.siringWithId = _sireId;\n\n    _triggleCooldown(matron);\n    _triggleCooldown(sire);\n\n    delete sireAllowToAddress[_matronId];\n    delete sireAllowToAddress[_sireId];\n\n    Pregnant(puppyIndexToOwner[_matronId], _matronId, _sireId);\n  }\n\n  function giveBrith(uint256 _matronId) public whenNotPaused returns (uint256){\n    Puppy storage matron = puppies[_matronId];\n    uint256 _sireId = matron.siringWithId;\n    Puppy storage sire = puppies[_sireId];\n\n    require(matron.birthtime != 0 );\n\n    require(_isReadyToGiveBirth(matron));\n\n    uint256 parentGen = matron.generation;\n    if (sire.generation > matron.generation) {\n      parentGen = sire.generation;\n    }\n\n    uint256 childGenes = (matron.genes + sire.genes) / 2;\n\n    address own = puppyIndexToOwner[_matronId];\n\n    uint256 puppyId = _createPuppy(_matronId, _sireId, parentGen + 1, childGenes, own);\n\n    return puppyId;\n  }\n\n\n}\n",
  "sourcePath": "/Users/Barry/Desktop/dapp/cryptopuppies/contracts/PuppyBreeding.sol",
  "compiler": {
    "name": "solc",
    "version": "0.4.18+commit.9cf6e910.Emscripten.clang"
  },
  "schemaVersion": "1.0.1",
  "updatedAt": "2018-05-17T22:10:07.207Z"
}