{
  "contractName": "PuppyMinting",
  "abi": [
    {
      "constant": true,
      "inputs": [
        {
          "name": "",
          "type": "uint256"
        }
      ],
      "name": "puppyIndexToOwner",
      "outputs": [
        {
          "name": "",
          "type": "address"
        }
      ],
      "payable": false,
      "stateMutability": "view",
      "type": "function"
    },
    {
      "constant": false,
      "inputs": [
        {
          "name": "_puppyId",
          "type": "uint256"
        },
        {
          "name": "_price",
          "type": "uint256"
        }
      ],
      "name": "createAuction",
      "outputs": [],
      "payable": false,
      "stateMutability": "nonpayable",
      "type": "function"
    },
    {
      "constant": false,
      "inputs": [
        {
          "name": "_auctionId",
          "type": "uint256"
        }
      ],
      "name": "bugAuctionPuppy",
      "outputs": [],
      "payable": true,
      "stateMutability": "payable",
      "type": "function"
    },
    {
      "constant": true,
      "inputs": [],
      "name": "name",
      "outputs": [
        {
          "name": "",
          "type": "string"
        }
      ],
      "payable": false,
      "stateMutability": "view",
      "type": "function"
    },
    {
      "constant": false,
      "inputs": [
        {
          "name": "_to",
          "type": "address"
        },
        {
          "name": "_tokenId",
          "type": "uint256"
        }
      ],
      "name": "approve",
      "outputs": [],
      "payable": false,
      "stateMutability": "nonpayable",
      "type": "function"
    },
    {
      "constant": true,
      "inputs": [],
      "name": "implementsERC721",
      "outputs": [
        {
          "name": "",
          "type": "bool"
        }
      ],
      "payable": false,
      "stateMutability": "pure",
      "type": "function"
    },
    {
      "constant": true,
      "inputs": [],
      "name": "totalSupply",
      "outputs": [
        {
          "name": "total",
          "type": "uint256"
        }
      ],
      "payable": false,
      "stateMutability": "view",
      "type": "function"
    },
    {
      "constant": false,
      "inputs": [
        {
          "name": "_from",
          "type": "address"
        },
        {
          "name": "_to",
          "type": "address"
        },
        {
          "name": "_tokenId",
          "type": "uint256"
        }
      ],
      "name": "transferFrom",
      "outputs": [],
      "payable": false,
      "stateMutability": "nonpayable",
      "type": "function"
    },
    {
      "constant": true,
      "inputs": [],
      "name": "BossAddress",
      "outputs": [
        {
          "name": "",
          "type": "address"
        }
      ],
      "payable": false,
      "stateMutability": "view",
      "type": "function"
    },
    {
      "constant": false,
      "inputs": [],
      "name": "unpause",
      "outputs": [],
      "payable": false,
      "stateMutability": "nonpayable",
      "type": "function"
    },
    {
      "constant": true,
      "inputs": [],
      "name": "giftPuppies",
      "outputs": [
        {
          "name": "",
          "type": "uint256"
        }
      ],
      "payable": false,
      "stateMutability": "view",
      "type": "function"
    },
    {
      "constant": true,
      "inputs": [
        {
          "name": "_auctionId",
          "type": "uint256"
        }
      ],
      "name": "checkAuctionPuppies",
      "outputs": [
        {
          "name": "PuppyId",
          "type": "uint256"
        },
        {
          "name": "PuppyOwner",
          "type": "address"
        },
        {
          "name": "PuppyPrice",
          "type": "uint256"
        },
        {
          "name": "PuppyStartTime",
          "type": "uint256"
        },
        {
          "name": "PuppyBirthTime",
          "type": "uint256"
        },
        {
          "name": "PuppyGeneration",
          "type": "uint256"
        },
        {
          "name": "PuppyGenes",
          "type": "uint256"
        },
        {
          "name": "PuppyMatron",
          "type": "uint256"
        },
        {
          "name": "PuppySire",
          "type": "uint256"
        }
      ],
      "payable": false,
      "stateMutability": "view",
      "type": "function"
    },
    {
      "constant": false,
      "inputs": [
        {
          "name": "_addr",
          "type": "address"
        },
        {
          "name": "_sireId",
          "type": "uint256"
        }
      ],
      "name": "approveSiring",
      "outputs": [],
      "payable": false,
      "stateMutability": "nonpayable",
      "type": "function"
    },
    {
      "constant": true,
      "inputs": [
        {
          "name": "",
          "type": "address"
        }
      ],
      "name": "auctionBalances",
      "outputs": [
        {
          "name": "",
          "type": "uint256"
        }
      ],
      "payable": false,
      "stateMutability": "view",
      "type": "function"
    },
    {
      "constant": true,
      "inputs": [],
      "name": "paused",
      "outputs": [
        {
          "name": "",
          "type": "bool"
        }
      ],
      "payable": false,
      "stateMutability": "view",
      "type": "function"
    },
    {
      "constant": false,
      "inputs": [],
      "name": "withdrawBalance",
      "outputs": [],
      "payable": false,
      "stateMutability": "nonpayable",
      "type": "function"
    },
    {
      "constant": true,
      "inputs": [
        {
          "name": "_tokenId",
          "type": "uint256"
        }
      ],
      "name": "ownerOf",
      "outputs": [
        {
          "name": "owner",
          "type": "address"
        }
      ],
      "payable": false,
      "stateMutability": "view",
      "type": "function"
    },
    {
      "constant": false,
      "inputs": [
        {
          "name": "matronId",
          "type": "uint256"
        },
        {
          "name": "sireId",
          "type": "uint256"
        }
      ],
      "name": "breedWith",
      "outputs": [],
      "payable": false,
      "stateMutability": "nonpayable",
      "type": "function"
    },
    {
      "constant": true,
      "inputs": [
        {
          "name": "_owner",
          "type": "address"
        }
      ],
      "name": "balanceOf",
      "outputs": [
        {
          "name": "",
          "type": "uint256"
        }
      ],
      "payable": false,
      "stateMutability": "view",
      "type": "function"
    },
    {
      "constant": true,
      "inputs": [],
      "name": "cooldown",
      "outputs": [
        {
          "name": "",
          "type": "uint32"
        }
      ],
      "payable": false,
      "stateMutability": "view",
      "type": "function"
    },
    {
      "constant": false,
      "inputs": [],
      "name": "pause",
      "outputs": [],
      "payable": false,
      "stateMutability": "nonpayable",
      "type": "function"
    },
    {
      "constant": true,
      "inputs": [],
      "name": "symbol",
      "outputs": [
        {
          "name": "",
          "type": "string"
        }
      ],
      "payable": false,
      "stateMutability": "view",
      "type": "function"
    },
    {
      "constant": true,
      "inputs": [
        {
          "name": "_puppyId",
          "type": "uint256"
        }
      ],
      "name": "isReadyForAuction",
      "outputs": [
        {
          "name": "",
          "type": "bool"
        }
      ],
      "payable": false,
      "stateMutability": "view",
      "type": "function"
    },
    {
      "constant": false,
      "inputs": [
        {
          "name": "_newboss",
          "type": "address"
        }
      ],
      "name": "setBoss",
      "outputs": [],
      "payable": false,
      "stateMutability": "nonpayable",
      "type": "function"
    },
    {
      "constant": false,
      "inputs": [
        {
          "name": "_to",
          "type": "address"
        },
        {
          "name": "_tokenId",
          "type": "uint256"
        }
      ],
      "name": "transfer",
      "outputs": [],
      "payable": false,
      "stateMutability": "nonpayable",
      "type": "function"
    },
    {
      "constant": true,
      "inputs": [],
      "name": "autoBirthFee",
      "outputs": [
        {
          "name": "",
          "type": "uint256"
        }
      ],
      "payable": false,
      "stateMutability": "view",
      "type": "function"
    },
    {
      "constant": true,
      "inputs": [
        {
          "name": "",
          "type": "uint256"
        }
      ],
      "name": "puppyIndexToApproved",
      "outputs": [
        {
          "name": "",
          "type": "address"
        }
      ],
      "payable": false,
      "stateMutability": "view",
      "type": "function"
    },
    {
      "constant": false,
      "inputs": [
        {
          "name": "_matronId",
          "type": "uint256"
        }
      ],
      "name": "giveBrith",
      "outputs": [
        {
          "name": "",
          "type": "uint256"
        }
      ],
      "payable": false,
      "stateMutability": "nonpayable",
      "type": "function"
    },
    {
      "constant": true,
      "inputs": [
        {
          "name": "_puppyId",
          "type": "uint256"
        }
      ],
      "name": "isReadyToBreed",
      "outputs": [
        {
          "name": "",
          "type": "bool"
        }
      ],
      "payable": false,
      "stateMutability": "view",
      "type": "function"
    },
    {
      "constant": false,
      "inputs": [
        {
          "name": "_genes",
          "type": "uint256"
        },
        {
          "name": "_owner",
          "type": "address"
        }
      ],
      "name": "createGiftPuppy",
      "outputs": [],
      "payable": false,
      "stateMutability": "nonpayable",
      "type": "function"
    },
    {
      "constant": false,
      "inputs": [],
      "name": "withdrawAuctionBalance",
      "outputs": [],
      "payable": false,
      "stateMutability": "nonpayable",
      "type": "function"
    },
    {
      "constant": true,
      "inputs": [],
      "name": "giftPuppiesCount",
      "outputs": [
        {
          "name": "",
          "type": "uint256"
        }
      ],
      "payable": false,
      "stateMutability": "view",
      "type": "function"
    },
    {
      "constant": true,
      "inputs": [
        {
          "name": "",
          "type": "uint256"
        }
      ],
      "name": "sireAllowToAddress",
      "outputs": [
        {
          "name": "",
          "type": "address"
        }
      ],
      "payable": false,
      "stateMutability": "view",
      "type": "function"
    },
    {
      "anonymous": false,
      "inputs": [
        {
          "indexed": false,
          "name": "owner",
          "type": "address"
        },
        {
          "indexed": false,
          "name": "matronId",
          "type": "uint256"
        },
        {
          "indexed": false,
          "name": "sireId",
          "type": "uint256"
        }
      ],
      "name": "Pregnant",
      "type": "event"
    },
    {
      "anonymous": false,
      "inputs": [
        {
          "indexed": true,
          "name": "from",
          "type": "address"
        },
        {
          "indexed": true,
          "name": "to",
          "type": "address"
        },
        {
          "indexed": true,
          "name": "tokenId",
          "type": "uint256"
        }
      ],
      "name": "Transfer",
      "type": "event"
    },
    {
      "anonymous": false,
      "inputs": [
        {
          "indexed": true,
          "name": "owner",
          "type": "address"
        },
        {
          "indexed": true,
          "name": "approved",
          "type": "address"
        },
        {
          "indexed": true,
          "name": "tokenId",
          "type": "uint256"
        }
      ],
      "name": "Approval",
      "type": "event"
    },
    {
      "anonymous": false,
      "inputs": [
        {
          "indexed": false,
          "name": "NewPuppyOwner",
          "type": "address"
        },
        {
          "indexed": false,
          "name": "PuppyId",
          "type": "uint256"
        },
        {
          "indexed": false,
          "name": "MatronId",
          "type": "uint256"
        },
        {
          "indexed": false,
          "name": "SireId",
          "type": "uint256"
        },
        {
          "indexed": false,
          "name": "Generation",
          "type": "uint256"
        }
      ],
      "name": "NewBrith",
      "type": "event"
    }
  ],
  "bytecode": "0x606060405260008060146101000a81548160ff021916908315150217905550601e600060156101000a81548163ffffffff021916908363ffffffff1602179055506040805190810160405280600d81526020017f43727970746f5075707069657300000000000000000000000000000000000000815250600690805190602001906200008d929190620000ff565b506040805190810160405280600281526020017f435000000000000000000000000000000000000000000000000000000000000081525060079080519060200190620000db929190620000ff565b5066038d7ea4c68000600855611388600b553415620000f957600080fd5b620001ae565b828054600181600116156101000203166002900490600052602060002090601f016020900481019282601f106200014257805160ff191683800117855562000173565b8280016001018555821562000173579182015b828111156200017257825182559160200191906001019062000155565b5b50905062000182919062000186565b5090565b620001ab91905b80821115620001a75760008160009055506001016200018d565b5090565b90565b61283f80620001be6000396000f3006060604052600436106101a0576000357c0100000000000000000000000000000000000000000000000000000000900463ffffffff168062eab0e3146101a55780630121683f1461020857806303daa93d1461023457806306fdde031461024c578063095ea7b3146102da5780631051db341461031c57806318160ddd1461034957806323b872dd1461037257806336e40d13146103d35780633f4ba83a1461042857806344ca30651461043d57806346c3a90a146104665780634dfff04f1461050157806352af2119146105435780635c975abb146105905780635fd8c710146105bd5780636352211e146105d25780637004fb841461063557806370a0823114610661578063787a08a6146106ae5780638456cb59146106e357806395d89b41146106f8578063a03211a014610786578063a7efbc8e146107c1578063a9059cbb146107fa578063b0c35c051461083c578063ba94042d14610865578063c50398f9146108c8578063d3e6f49f146108ff578063d4fe84f91461093a578063d8eb3a981461097c578063db129e4114610991578063e227f732146109ba575b600080fd5b34156101b057600080fd5b6101c66004808035906020019091905050610a1d565b604051808273ffffffffffffffffffffffffffffffffffffffff1673ffffffffffffffffffffffffffffffffffffffff16815260200191505060405180910390f35b341561021357600080fd5b6102326004808035906020019091908035906020019091905050610a50565b005b61024a6004808035906020019091905050610b26565b005b341561025757600080fd5b61025f610d46565b6040518080602001828103825283818151815260200191508051906020019080838360005b8381101561029f578082015181840152602081019050610284565b50505050905090810190601f1680156102cc5780820380516001836020036101000a031916815260200191505b509250505060405180910390f35b34156102e557600080fd5b61031a600480803573ffffffffffffffffffffffffffffffffffffffff16906020019091908035906020019091905050610de4565b005b341561032757600080fd5b61032f610ec6565b604051808215151515815260200191505060405180910390f35b341561035457600080fd5b61035c610ecf565b6040518082815260200191505060405180910390f35b341561037d57600080fd5b6103d1600480803573ffffffffffffffffffffffffffffffffffffffff1690602001909190803573ffffffffffffffffffffffffffffffffffffffff16906020019091908035906020019091905050610ede565b005b34156103de57600080fd5b6103e6610fc8565b604051808273ffffffffffffffffffffffffffffffffffffffff1673ffffffffffffffffffffffffffffffffffffffff16815260200191505060405180910390f35b341561043357600080fd5b61043b610fed565b005b341561044857600080fd5b61045061107f565b6040518082815260200191505060405180910390f35b341561047157600080fd5b6104876004808035906020019091905050611085565b604051808a81526020018973ffffffffffffffffffffffffffffffffffffffff1673ffffffffffffffffffffffffffffffffffffffff168152602001888152602001878152602001868152602001858152602001848152602001838152602001828152602001995050505050505050505060405180910390f35b341561050c57600080fd5b610541600480803573ffffffffffffffffffffffffffffffffffffffff1690602001909190803590602001909190505061113c565b005b341561054e57600080fd5b61057a600480803573ffffffffffffffffffffffffffffffffffffffff169060200190919050506111c3565b6040518082815260200191505060405180910390f35b341561059b57600080fd5b6105a36111db565b604051808215151515815260200191505060405180910390f35b34156105c857600080fd5b6105d06111ee565b005b34156105dd57600080fd5b6105f360048080359060200190919050506112c3565b604051808273ffffffffffffffffffffffffffffffffffffffff1673ffffffffffffffffffffffffffffffffffffffff16815260200191505060405180910390f35b341561064057600080fd5b61065f600480803590602001909190803590602001909190505061133c565b005b341561066c57600080fd5b610698600480803573ffffffffffffffffffffffffffffffffffffffff169060200190919050506114b6565b6040518082815260200191505060405180910390f35b34156106b957600080fd5b6106c16114ff565b604051808263ffffffff1663ffffffff16815260200191505060405180910390f35b34156106ee57600080fd5b6106f6611515565b005b341561070357600080fd5b61070b6115a9565b6040518080602001828103825283818151815260200191508051906020019080838360005b8381101561074b578082015181840152602081019050610730565b50505050905090810190601f1680156107785780820380516001836020036101000a031916815260200191505b509250505060405180910390f35b341561079157600080fd5b6107a76004808035906020019091905050611647565b604051808215151515815260200191505060405180910390f35b34156107cc57600080fd5b6107f8600480803573ffffffffffffffffffffffffffffffffffffffff169060200190919050506116db565b005b341561080557600080fd5b61083a600480803573ffffffffffffffffffffffffffffffffffffffff169060200190919080359060200190919050506117b5565b005b341561084757600080fd5b61084f611831565b6040518082815260200191505060405180910390f35b341561087057600080fd5b6108866004808035906020019091905050611837565b604051808273ffffffffffffffffffffffffffffffffffffffff1673ffffffffffffffffffffffffffffffffffffffff16815260200191505060405180910390f35b34156108d357600080fd5b6108e9600480803590602001909190505061186a565b6040518082815260200191505060405180910390f35b341561090a57600080fd5b61092060048080359060200190919050506119e0565b604051808215151515815260200191505060405180910390f35b341561094557600080fd5b61097a600480803590602001909190803573ffffffffffffffffffffffffffffffffffffffff16906020019091905050611a74565b005b341561098757600080fd5b61098f611b4a565b005b341561099c57600080fd5b6109a4611c7a565b6040518082815260200191505060405180910390f35b34156109c557600080fd5b6109db6004808035906020019091905050611c80565b604051808273ffffffffffffffffffffffffffffffffffffffff1673ffffffffffffffffffffffffffffffffffffffff16815260200191505060405180910390f35b60036020528060005260406000206000915054906101000a900473ffffffffffffffffffffffffffffffffffffffff1681565b60008060149054906101000a900460ff16151515610a6d57600080fd5b600183815481101515610a7c57fe5b90600052602060002090600702019050610a963384611cb3565b1515610aa157600080fd5b610afc8160e06040519081016040529081600082015481526020016001820154815260200160028201548152602001600382015481526020016004820154815260200160058201548152602001600682015481525050611d1f565b1515610b0757600080fd5b610b1383338442611d3f565b62278d0042018160020181905550505050565b600080600080600060149054906101000a900460ff16151515610b4857600080fd5b6001600980549050038511151515610b5f57600080fd5b600985815481101515610b6e57fe5b9060005260206000209060090201935083600201543410151515610b9157600080fd5b33600460008660000154815260200190815260200160002060006101000a81548173ffffffffffffffffffffffffffffffffffffffff021916908373ffffffffffffffffffffffffffffffffffffffff1602179055508360010160009054906101000a900473ffffffffffffffffffffffffffffffffffffffff1692508360020154915060018460000154815481101515610c2857fe5b90600052602060002090600702019050428160020181905550610c748460010160009054906101000a900473ffffffffffffffffffffffffffffffffffffffff16338660000154610ede565b600985815481101515610c8357fe5b90600052602060002090600902016000808201600090556001820160006101000a81549073ffffffffffffffffffffffffffffffffffffffff02191690556002820160009055600382016000905560048201600090556005820160009055600682016000905560078201600090556008820160009055505081600a60008573ffffffffffffffffffffffffffffffffffffffff1673ffffffffffffffffffffffffffffffffffffffff168152602001908152602001600020819055505050505050565b60068054600181600116156101000203166002900480601f016020809104026020016040519081016040528092919081815260200182805460018160011615610100020316600290048015610ddc5780601f10610db157610100808354040283529160200191610ddc565b820191906000526020600020905b815481529060010190602001808311610dbf57829003601f168201915b505050505081565b600060149054906101000a900460ff16151515610e0057600080fd5b610e0a3382611cb3565b1515610e1557600080fd5b816004600083815260200190815260200160002060006101000a81548173ffffffffffffffffffffffffffffffffffffffff021916908373ffffffffffffffffffffffffffffffffffffffff160217905550808273ffffffffffffffffffffffffffffffffffffffff163373ffffffffffffffffffffffffffffffffffffffff167f8c5be1e5ebec7d5bd14f71427d1e84f3dd0314c0f7b2291e5b200ac8c7c3b92560405160405180910390a45050565b60006001905090565b60006001808054905003905090565b600060149054906101000a900460ff16151515610efa57600080fd5b3373ffffffffffffffffffffffffffffffffffffffff166004600083815260200190815260200160002060009054906101000a900473ffffffffffffffffffffffffffffffffffffffff1673ffffffffffffffffffffffffffffffffffffffff16141515610f6757600080fd5b610f718382611cb3565b1515610f7c57600080fd5b600073ffffffffffffffffffffffffffffffffffffffff168273ffffffffffffffffffffffffffffffffffffffff1614151515610fb857600080fd5b610fc3838383611f0c565b505050565b6000809054906101000a900473ffffffffffffffffffffffffffffffffffffffff1681565b6000809054906101000a900473ffffffffffffffffffffffffffffffffffffffff1673ffffffffffffffffffffffffffffffffffffffff163373ffffffffffffffffffffffffffffffffffffffff1614151561104857600080fd5b600060149054906101000a900460ff16151561106357600080fd5b60008060146101000a81548160ff021916908315150217905550565b600b5481565b600080600080600080600080600080600060149054906101000a900460ff161515156110b057600080fd5b60098b8154811015156110bf57fe5b90600052602060002090600902019050806000015499508060010160009054906101000a900473ffffffffffffffffffffffffffffffffffffffff16985080600201549750806003015496508060040154955080600501549450806006015493508060070154925080600801549150509193959799909294969850565b600060149054906101000a900460ff1615151561115857600080fd5b6111623382611cb3565b151561116d57600080fd5b816005600083815260200190815260200160002060006101000a81548173ffffffffffffffffffffffffffffffffffffffff021916908373ffffffffffffffffffffffffffffffffffffffff1602179055505050565b600a6020528060005260406000206000915090505481565b600060149054906101000a900460ff1681565b6000809054906101000a900473ffffffffffffffffffffffffffffffffffffffff1673ffffffffffffffffffffffffffffffffffffffff163373ffffffffffffffffffffffffffffffffffffffff1614151561124957600080fd5b6000809054906101000a900473ffffffffffffffffffffffffffffffffffffffff1673ffffffffffffffffffffffffffffffffffffffff166108fc3073ffffffffffffffffffffffffffffffffffffffff16319081150290604051600060405180830381858888f1935050505015156112c157600080fd5b565b60006003600083815260200190815260200160002060009054906101000a900473ffffffffffffffffffffffffffffffffffffffff169050600073ffffffffffffffffffffffffffffffffffffffff168173ffffffffffffffffffffffffffffffffffffffff161415151561133757600080fd5b919050565b600080600060149054906101000a900460ff1615151561135b57600080fd5b6113653385611cb3565b151561137057600080fd5b61137a848461206f565b151561138557600080fd5b60018481548110151561139457fe5b906000526020600020906007020191506001838154811015156113b357fe5b9060005260206000209060070201905061141e8260e06040519081016040529081600082015481526020016001820154815260200160028201548152602001600382015481526020016004820154815260200160058201548152602001600682015481525050612182565b151561142957600080fd5b6114848160e06040519081016040529081600082015481526020016001820154815260200160028201548152602001600382015481526020016004820154815260200160058201548152602001600682015481525050612182565b151561148f57600080fd5b61149b828583866121a2565b15156114a657600080fd5b6114b08484612283565b50505050565b6000600260008373ffffffffffffffffffffffffffffffffffffffff1673ffffffffffffffffffffffffffffffffffffffff168152602001908152602001600020549050919050565b600060159054906101000a900463ffffffff1681565b6000809054906101000a900473ffffffffffffffffffffffffffffffffffffffff1673ffffffffffffffffffffffffffffffffffffffff163373ffffffffffffffffffffffffffffffffffffffff1614151561157057600080fd5b600060149054906101000a900460ff1615151561158c57600080fd5b6001600060146101000a81548160ff021916908315150217905550565b60078054600181600116156101000203166002900480601f01602080910402602001604051908101604052809291908181526020018280546001816001161561010002031660029004801561163f5780601f106116145761010080835404028352916020019161163f565b820191906000526020600020905b81548152906001019060200180831161162257829003601f168201915b505050505081565b60008060008311151561165957600080fd5b60018381548110151561166857fe5b906000526020600020906007020190506116d38160e06040519081016040529081600082015481526020016001820154815260200160028201548152602001600382015481526020016004820154815260200160058201548152602001600682015481525050611d1f565b915050919050565b6000809054906101000a900473ffffffffffffffffffffffffffffffffffffffff1673ffffffffffffffffffffffffffffffffffffffff163373ffffffffffffffffffffffffffffffffffffffff1614151561173657600080fd5b600073ffffffffffffffffffffffffffffffffffffffff168173ffffffffffffffffffffffffffffffffffffffff161415151561177257600080fd5b806000806101000a81548173ffffffffffffffffffffffffffffffffffffffff021916908373ffffffffffffffffffffffffffffffffffffffff16021790555050565b600060149054906101000a900460ff161515156117d157600080fd5b600073ffffffffffffffffffffffffffffffffffffffff168273ffffffffffffffffffffffffffffffffffffffff161415151561180d57600080fd5b6118173382611cb3565b151561182257600080fd5b61182d338383611f0c565b5050565b60085481565b60046020528060005260406000206000915054906101000a900473ffffffffffffffffffffffffffffffffffffffff1681565b600080600080600080600080600060149054906101000a900460ff1615151561189257600080fd5b6001898154811015156118a157fe5b90600052602060002090600702019650866005015495506001868154811015156118c757fe5b9060005260206000209060070201945060008760010154141515156118eb57600080fd5b6119468760e060405190810160405290816000820154815260200160018201548152602001600282015481526020016003820154815260200160048201548152602001600582015481526020016006820154815250506123f7565b151561195157600080fd5b8660060154935086600601548560060154111561197057846006015493505b6002856000015488600001540181151561198657fe5b049250600360008a815260200190815260200160002060009054906101000a900473ffffffffffffffffffffffffffffffffffffffff1691506119cf8987600187018686612418565b905080975050505050505050919050565b6000806000831115156119f257600080fd5b600183815481101515611a0157fe5b90600052602060002090600702019050611a6c8160e06040519081016040529081600082015481526020016001820154815260200160028201548152602001600382015481526020016004820154815260200160058201548152602001600682015481525050612182565b915050919050565b6000809054906101000a900473ffffffffffffffffffffffffffffffffffffffff1673ffffffffffffffffffffffffffffffffffffffff163373ffffffffffffffffffffffffffffffffffffffff16141515611acf57600080fd5b600073ffffffffffffffffffffffffffffffffffffffff168173ffffffffffffffffffffffffffffffffffffffff161415611b12576000809054906101000a9050505b600b54600c54101515611b2457600080fd5b600c60008154809291906001019190505550611b4560008060008585612418565b505050565b600060149054906101000a900460ff16151515611b6657600080fd5b600073ffffffffffffffffffffffffffffffffffffffff163373ffffffffffffffffffffffffffffffffffffffff1614151515611ba257600080fd5b611bab336125c0565b1515611bb657600080fd5b3373ffffffffffffffffffffffffffffffffffffffff166108fc600a60003373ffffffffffffffffffffffffffffffffffffffff1673ffffffffffffffffffffffffffffffffffffffff168152602001908152602001600020549081150290604051600060405180830381858888f193505050501515611c3557600080fd5b600a60003373ffffffffffffffffffffffffffffffffffffffff1673ffffffffffffffffffffffffffffffffffffffff16815260200190815260200160002060009055565b600c5481565b60056020528060005260406000206000915054906101000a900473ffffffffffffffffffffffffffffffffffffffff1681565b60008273ffffffffffffffffffffffffffffffffffffffff166003600084815260200190815260200160002060009054906101000a900473ffffffffffffffffffffffffffffffffffffffff1673ffffffffffffffffffffffffffffffffffffffff1614905092915050565b6000808260a00151148015611d38575042826040015111155b9050919050565b611d47612631565b610120604051908101604052808681526020018573ffffffffffffffffffffffffffffffffffffffff168152602001848152602001838152602001600187815481101515611d9157fe5b9060005260206000209060070201600101548152602001600187815481101515611db757fe5b9060005260206000209060070201600601548152602001600187815481101515611ddd57fe5b9060005260206000209060070201600001548152602001600187815481101515611e0357fe5b9060005260206000209060070201600301548152602001600187815481101515611e2957fe5b906000526020600020906007020160040154815250905060098054806001018281611e549190612694565b916000526020600020906009020160008390919091506000820151816000015560208201518160010160006101000a81548173ffffffffffffffffffffffffffffffffffffffff021916908373ffffffffffffffffffffffffffffffffffffffff16021790555060408201518160020155606082015181600301556080820151816004015560a0820151816005015560c0820151816006015560e0820151816007015561010082015181600801555050505050505050565b600260008373ffffffffffffffffffffffffffffffffffffffff1673ffffffffffffffffffffffffffffffffffffffff16815260200190815260200160002060008154809291906001019190505550816003600083815260200190815260200160002060006101000a81548173ffffffffffffffffffffffffffffffffffffffff021916908373ffffffffffffffffffffffffffffffffffffffff160217905550600073ffffffffffffffffffffffffffffffffffffffff168373ffffffffffffffffffffffffffffffffffffffff1614151561206a57600260008473ffffffffffffffffffffffffffffffffffffffff1673ffffffffffffffffffffffffffffffffffffffff16815260200190815260200160002060008154809291906001900391905055506004600082815260200190815260200160002060006101000a81549073ffffffffffffffffffffffffffffffffffffffff02191690555b505050565b60008060006003600086815260200190815260200160002060009054906101000a900473ffffffffffffffffffffffffffffffffffffffff1691506003600085815260200190815260200160002060009054906101000a900473ffffffffffffffffffffffffffffffffffffffff1690508073ffffffffffffffffffffffffffffffffffffffff168273ffffffffffffffffffffffffffffffffffffffff16148061217857508173ffffffffffffffffffffffffffffffffffffffff166005600086815260200190815260200160002060009054906101000a900473ffffffffffffffffffffffffffffffffffffffff1673ffffffffffffffffffffffffffffffffffffffff16145b9250505092915050565b6000808260a0015114801561219b575042826040015111155b9050919050565b6000818414156121b5576000905061227b565b81856003015414806121ca5750818560040154145b156121d8576000905061227b565b83836003015414806121ed5750838360040154145b156121fb576000905061227b565b600083600301541480612212575060008560030154145b15612220576001905061227b565b84600301548360030154148061223d575084600401548360030154145b1561224b576000905061227b565b846003015483600401541480612268575084600401548360040154145b15612276576000905061227b565b600190505b949350505050565b60008060018481548110151561229557fe5b906000526020600020906007020191506001838154811015156122b457fe5b906000526020600020906007020190508282600501819055506122d68261260b565b6122df8161260b565b6005600085815260200190815260200160002060006101000a81549073ffffffffffffffffffffffffffffffffffffffff02191690556005600084815260200190815260200160002060006101000a81549073ffffffffffffffffffffffffffffffffffffffff02191690557f6b4808987a5cecdf67d54ca5dc20664fafca80ef7195097800c12549245ab20d6003600086815260200190815260200160002060009054906101000a900473ffffffffffffffffffffffffffffffffffffffff168585604051808473ffffffffffffffffffffffffffffffffffffffff1673ffffffffffffffffffffffffffffffffffffffff168152602001838152602001828152602001935050505060405180910390a150505050565b6000808260a0015114158015612411575042826040015111155b9050919050565b60006124226126c6565b600063ffffffff881115151561243757600080fd5b63ffffffff871115151561244a57600080fd5b61ffff861115151561245b57600080fd5b60e0604051908101604052808681526020014281526020016000815260200189815260200188815260200160008152602001878152509150600180548060010182816124a79190612704565b91600052602060002090600702016000849091909150600082015181600001556020820151816001015560408201518160020155606082015181600301556080820151816004015560a0820151816005015560c082015181600601555050506001808054905003905063ffffffff811115151561252357600080fd5b7fe6f1819515ac756027ac2607ca2442ef24fabea640f62afb9e2848050883e18784828a8a8a604051808673ffffffffffffffffffffffffffffffffffffffff1673ffffffffffffffffffffffffffffffffffffffff1681526020018581526020018481526020018381526020018281526020019550505050505060405180910390a16125b260008583611f0c565b809250505095945050505050565b600080600a60008473ffffffffffffffffffffffffffffffffffffffff1673ffffffffffffffffffffffffffffffffffffffff16815260200190815260200160002054119050919050565b600060159054906101000a900463ffffffff1663ffffffff164201816002018190555050565b6101206040519081016040528060008152602001600073ffffffffffffffffffffffffffffffffffffffff168152602001600081526020016000815260200160008152602001600081526020016000815260200160008152602001600081525090565b8154818355818115116126c1576009028160090283600052602060002091820191016126c09190612736565b5b505050565b60e060405190810160405280600081526020016000815260200160008152602001600081526020016000815260200160008152602001600081525090565b8154818355818115116127315760070281600702836000526020600020918201910161273091906127bc565b5b505050565b6127b991905b808211156127b5576000808201600090556001820160006101000a81549073ffffffffffffffffffffffffffffffffffffffff021916905560028201600090556003820160009055600482016000905560058201600090556006820160009055600782016000905560088201600090555060090161273c565b5090565b90565b61281091905b8082111561280c57600080820160009055600182016000905560028201600090556003820160009055600482016000905560058201600090556006820160009055506007016127c2565b5090565b905600a165627a7a72305820e31a18c98b4f9a3c950182374d181d7ef50a79cdc961b8d43a1e24238cfc2cfc0029",
  "source": "pragma solidity ^0.4.18;\n\nimport \"./PuppyAuction.sol\";\n\ncontract PuppyMinting is PuppyAuction{\n  uint256 public giftPuppies = 5000;\n  uint256 public giftPuppiesCount;\n\n  function createGiftPuppy(uint256 _genes, address _owner) public onlyBoss {\n    if (_owner == address(0)) {\n      _owner == BossAddress;\n    }\n\n    require(giftPuppiesCount < giftPuppies);\n    giftPuppiesCount ++;\n    _createPuppy(0, 0, 0, _genes, _owner);\n  }\n\n}\n",
  "sourcePath": "/Users/Barry/Desktop/dapp/cryptopuppies/contracts/PuppyMinting.sol",
  "compiler": {
    "name": "solc",
    "version": "0.4.18+commit.9cf6e910.Emscripten.clang"
  },
  "schemaVersion": "1.0.1",
  "updatedAt": "2018-05-17T22:10:07.216Z"
}