{
  "contractName": "PuppyAuction",
  "abi": [
    {
      "constant": true,
      "inputs": [
        {
          "name": "",
          "type": "uint256"
        }
      ],
      "name": "puppyIndexToOwner",
      "outputs": [
        {
          "name": "",
          "type": "address"
        }
      ],
      "payable": false,
      "stateMutability": "view",
      "type": "function"
    },
    {
      "constant": false,
      "inputs": [
        {
          "name": "_puppyId",
          "type": "uint256"
        },
        {
          "name": "_price",
          "type": "uint256"
        }
      ],
      "name": "createAuction",
      "outputs": [],
      "payable": false,
      "stateMutability": "nonpayable",
      "type": "function"
    },
    {
      "constant": false,
      "inputs": [
        {
          "name": "_auctionId",
          "type": "uint256"
        }
      ],
      "name": "bugAuctionPuppy",
      "outputs": [],
      "payable": true,
      "stateMutability": "payable",
      "type": "function"
    },
    {
      "constant": true,
      "inputs": [],
      "name": "name",
      "outputs": [
        {
          "name": "",
          "type": "string"
        }
      ],
      "payable": false,
      "stateMutability": "view",
      "type": "function"
    },
    {
      "constant": false,
      "inputs": [
        {
          "name": "_to",
          "type": "address"
        },
        {
          "name": "_tokenId",
          "type": "uint256"
        }
      ],
      "name": "approve",
      "outputs": [],
      "payable": false,
      "stateMutability": "nonpayable",
      "type": "function"
    },
    {
      "constant": true,
      "inputs": [],
      "name": "implementsERC721",
      "outputs": [
        {
          "name": "",
          "type": "bool"
        }
      ],
      "payable": false,
      "stateMutability": "pure",
      "type": "function"
    },
    {
      "constant": true,
      "inputs": [],
      "name": "totalSupply",
      "outputs": [
        {
          "name": "total",
          "type": "uint256"
        }
      ],
      "payable": false,
      "stateMutability": "view",
      "type": "function"
    },
    {
      "constant": false,
      "inputs": [
        {
          "name": "_from",
          "type": "address"
        },
        {
          "name": "_to",
          "type": "address"
        },
        {
          "name": "_tokenId",
          "type": "uint256"
        }
      ],
      "name": "transferFrom",
      "outputs": [],
      "payable": false,
      "stateMutability": "nonpayable",
      "type": "function"
    },
    {
      "constant": true,
      "inputs": [],
      "name": "BossAddress",
      "outputs": [
        {
          "name": "",
          "type": "address"
        }
      ],
      "payable": false,
      "stateMutability": "view",
      "type": "function"
    },
    {
      "constant": false,
      "inputs": [],
      "name": "unpause",
      "outputs": [],
      "payable": false,
      "stateMutability": "nonpayable",
      "type": "function"
    },
    {
      "constant": true,
      "inputs": [
        {
          "name": "_auctionId",
          "type": "uint256"
        }
      ],
      "name": "checkAuctionPuppies",
      "outputs": [
        {
          "name": "PuppyId",
          "type": "uint256"
        },
        {
          "name": "PuppyOwner",
          "type": "address"
        },
        {
          "name": "PuppyPrice",
          "type": "uint256"
        },
        {
          "name": "PuppyStartTime",
          "type": "uint256"
        },
        {
          "name": "PuppyBirthTime",
          "type": "uint256"
        },
        {
          "name": "PuppyGeneration",
          "type": "uint256"
        },
        {
          "name": "PuppyGenes",
          "type": "uint256"
        },
        {
          "name": "PuppyMatron",
          "type": "uint256"
        },
        {
          "name": "PuppySire",
          "type": "uint256"
        }
      ],
      "payable": false,
      "stateMutability": "view",
      "type": "function"
    },
    {
      "constant": false,
      "inputs": [
        {
          "name": "_addr",
          "type": "address"
        },
        {
          "name": "_sireId",
          "type": "uint256"
        }
      ],
      "name": "approveSiring",
      "outputs": [],
      "payable": false,
      "stateMutability": "nonpayable",
      "type": "function"
    },
    {
      "constant": true,
      "inputs": [
        {
          "name": "",
          "type": "address"
        }
      ],
      "name": "auctionBalances",
      "outputs": [
        {
          "name": "",
          "type": "uint256"
        }
      ],
      "payable": false,
      "stateMutability": "view",
      "type": "function"
    },
    {
      "constant": true,
      "inputs": [],
      "name": "paused",
      "outputs": [
        {
          "name": "",
          "type": "bool"
        }
      ],
      "payable": false,
      "stateMutability": "view",
      "type": "function"
    },
    {
      "constant": false,
      "inputs": [],
      "name": "withdrawBalance",
      "outputs": [],
      "payable": false,
      "stateMutability": "nonpayable",
      "type": "function"
    },
    {
      "constant": true,
      "inputs": [
        {
          "name": "_tokenId",
          "type": "uint256"
        }
      ],
      "name": "ownerOf",
      "outputs": [
        {
          "name": "owner",
          "type": "address"
        }
      ],
      "payable": false,
      "stateMutability": "view",
      "type": "function"
    },
    {
      "constant": false,
      "inputs": [
        {
          "name": "matronId",
          "type": "uint256"
        },
        {
          "name": "sireId",
          "type": "uint256"
        }
      ],
      "name": "breedWith",
      "outputs": [],
      "payable": false,
      "stateMutability": "nonpayable",
      "type": "function"
    },
    {
      "constant": true,
      "inputs": [
        {
          "name": "_owner",
          "type": "address"
        }
      ],
      "name": "balanceOf",
      "outputs": [
        {
          "name": "",
          "type": "uint256"
        }
      ],
      "payable": false,
      "stateMutability": "view",
      "type": "function"
    },
    {
      "constant": true,
      "inputs": [],
      "name": "cooldown",
      "outputs": [
        {
          "name": "",
          "type": "uint32"
        }
      ],
      "payable": false,
      "stateMutability": "view",
      "type": "function"
    },
    {
      "constant": false,
      "inputs": [],
      "name": "pause",
      "outputs": [],
      "payable": false,
      "stateMutability": "nonpayable",
      "type": "function"
    },
    {
      "constant": true,
      "inputs": [],
      "name": "symbol",
      "outputs": [
        {
          "name": "",
          "type": "string"
        }
      ],
      "payable": false,
      "stateMutability": "view",
      "type": "function"
    },
    {
      "constant": true,
      "inputs": [
        {
          "name": "_puppyId",
          "type": "uint256"
        }
      ],
      "name": "isReadyForAuction",
      "outputs": [
        {
          "name": "",
          "type": "bool"
        }
      ],
      "payable": false,
      "stateMutability": "view",
      "type": "function"
    },
    {
      "constant": false,
      "inputs": [
        {
          "name": "_newboss",
          "type": "address"
        }
      ],
      "name": "setBoss",
      "outputs": [],
      "payable": false,
      "stateMutability": "nonpayable",
      "type": "function"
    },
    {
      "constant": false,
      "inputs": [
        {
          "name": "_to",
          "type": "address"
        },
        {
          "name": "_tokenId",
          "type": "uint256"
        }
      ],
      "name": "transfer",
      "outputs": [],
      "payable": false,
      "stateMutability": "nonpayable",
      "type": "function"
    },
    {
      "constant": true,
      "inputs": [],
      "name": "autoBirthFee",
      "outputs": [
        {
          "name": "",
          "type": "uint256"
        }
      ],
      "payable": false,
      "stateMutability": "view",
      "type": "function"
    },
    {
      "constant": true,
      "inputs": [
        {
          "name": "",
          "type": "uint256"
        }
      ],
      "name": "puppyIndexToApproved",
      "outputs": [
        {
          "name": "",
          "type": "address"
        }
      ],
      "payable": false,
      "stateMutability": "view",
      "type": "function"
    },
    {
      "constant": false,
      "inputs": [
        {
          "name": "_matronId",
          "type": "uint256"
        }
      ],
      "name": "giveBrith",
      "outputs": [
        {
          "name": "",
          "type": "uint256"
        }
      ],
      "payable": false,
      "stateMutability": "nonpayable",
      "type": "function"
    },
    {
      "constant": true,
      "inputs": [
        {
          "name": "_puppyId",
          "type": "uint256"
        }
      ],
      "name": "isReadyToBreed",
      "outputs": [
        {
          "name": "",
          "type": "bool"
        }
      ],
      "payable": false,
      "stateMutability": "view",
      "type": "function"
    },
    {
      "constant": false,
      "inputs": [],
      "name": "withdrawAuctionBalance",
      "outputs": [],
      "payable": false,
      "stateMutability": "nonpayable",
      "type": "function"
    },
    {
      "constant": true,
      "inputs": [
        {
          "name": "",
          "type": "uint256"
        }
      ],
      "name": "sireAllowToAddress",
      "outputs": [
        {
          "name": "",
          "type": "address"
        }
      ],
      "payable": false,
      "stateMutability": "view",
      "type": "function"
    },
    {
      "anonymous": false,
      "inputs": [
        {
          "indexed": false,
          "name": "owner",
          "type": "address"
        },
        {
          "indexed": false,
          "name": "matronId",
          "type": "uint256"
        },
        {
          "indexed": false,
          "name": "sireId",
          "type": "uint256"
        }
      ],
      "name": "Pregnant",
      "type": "event"
    },
    {
      "anonymous": false,
      "inputs": [
        {
          "indexed": true,
          "name": "from",
          "type": "address"
        },
        {
          "indexed": true,
          "name": "to",
          "type": "address"
        },
        {
          "indexed": true,
          "name": "tokenId",
          "type": "uint256"
        }
      ],
      "name": "Transfer",
      "type": "event"
    },
    {
      "anonymous": false,
      "inputs": [
        {
          "indexed": true,
          "name": "owner",
          "type": "address"
        },
        {
          "indexed": true,
          "name": "approved",
          "type": "address"
        },
        {
          "indexed": true,
          "name": "tokenId",
          "type": "uint256"
        }
      ],
      "name": "Approval",
      "type": "event"
    },
    {
      "anonymous": false,
      "inputs": [
        {
          "indexed": false,
          "name": "NewPuppyOwner",
          "type": "address"
        },
        {
          "indexed": false,
          "name": "PuppyId",
          "type": "uint256"
        },
        {
          "indexed": false,
          "name": "MatronId",
          "type": "uint256"
        },
        {
          "indexed": false,
          "name": "SireId",
          "type": "uint256"
        },
        {
          "indexed": false,
          "name": "Generation",
          "type": "uint256"
        }
      ],
      "name": "NewBrith",
      "type": "event"
    }
  ],
  "bytecode": "0x606060405260008060146101000a81548160ff021916908315150217905550601e600060156101000a81548163ffffffff021916908363ffffffff1602179055506040805190810160405280600d81526020017f43727970746f5075707069657300000000000000000000000000000000000000815250600690805190602001906200008d929190620000f9565b506040805190810160405280600281526020017f435000000000000000000000000000000000000000000000000000000000000081525060079080519060200190620000db929190620000f9565b5066038d7ea4c680006008553415620000f357600080fd5b620001a8565b828054600181600116156101000203166002900490600052602060002090601f016020900481019282601f106200013c57805160ff19168380011785556200016d565b828001600101855582156200016d579182015b828111156200016c5782518255916020019190600101906200014f565b5b5090506200017c919062000180565b5090565b620001a591905b80821115620001a157600081600090555060010162000187565b5090565b90565b6126a880620001b86000396000f30060606040526004361061017f576000357c0100000000000000000000000000000000000000000000000000000000900463ffffffff168062eab0e3146101845780630121683f146101e757806303daa93d1461021357806306fdde031461022b578063095ea7b3146102b95780631051db34146102fb57806318160ddd1461032857806323b872dd1461035157806336e40d13146103b25780633f4ba83a1461040757806346c3a90a1461041c5780634dfff04f146104b757806352af2119146104f95780635c975abb146105465780635fd8c710146105735780636352211e146105885780637004fb84146105eb57806370a0823114610617578063787a08a6146106645780638456cb591461069957806395d89b41146106ae578063a03211a01461073c578063a7efbc8e14610777578063a9059cbb146107b0578063b0c35c05146107f2578063ba94042d1461081b578063c50398f91461087e578063d3e6f49f146108b5578063d8eb3a98146108f0578063e227f73214610905575b600080fd5b341561018f57600080fd5b6101a56004808035906020019091905050610968565b604051808273ffffffffffffffffffffffffffffffffffffffff1673ffffffffffffffffffffffffffffffffffffffff16815260200191505060405180910390f35b34156101f257600080fd5b610211600480803590602001909190803590602001909190505061099b565b005b6102296004808035906020019091905050610a71565b005b341561023657600080fd5b61023e610c91565b6040518080602001828103825283818151815260200191508051906020019080838360005b8381101561027e578082015181840152602081019050610263565b50505050905090810190601f1680156102ab5780820380516001836020036101000a031916815260200191505b509250505060405180910390f35b34156102c457600080fd5b6102f9600480803573ffffffffffffffffffffffffffffffffffffffff16906020019091908035906020019091905050610d2f565b005b341561030657600080fd5b61030e610e11565b604051808215151515815260200191505060405180910390f35b341561033357600080fd5b61033b610e1a565b6040518082815260200191505060405180910390f35b341561035c57600080fd5b6103b0600480803573ffffffffffffffffffffffffffffffffffffffff1690602001909190803573ffffffffffffffffffffffffffffffffffffffff16906020019091908035906020019091905050610e29565b005b34156103bd57600080fd5b6103c5610f13565b604051808273ffffffffffffffffffffffffffffffffffffffff1673ffffffffffffffffffffffffffffffffffffffff16815260200191505060405180910390f35b341561041257600080fd5b61041a610f38565b005b341561042757600080fd5b61043d6004808035906020019091905050610fca565b604051808a81526020018973ffffffffffffffffffffffffffffffffffffffff1673ffffffffffffffffffffffffffffffffffffffff168152602001888152602001878152602001868152602001858152602001848152602001838152602001828152602001995050505050505050505060405180910390f35b34156104c257600080fd5b6104f7600480803573ffffffffffffffffffffffffffffffffffffffff16906020019091908035906020019091905050611081565b005b341561050457600080fd5b610530600480803573ffffffffffffffffffffffffffffffffffffffff16906020019091905050611108565b6040518082815260200191505060405180910390f35b341561055157600080fd5b610559611120565b604051808215151515815260200191505060405180910390f35b341561057e57600080fd5b610586611133565b005b341561059357600080fd5b6105a96004808035906020019091905050611208565b604051808273ffffffffffffffffffffffffffffffffffffffff1673ffffffffffffffffffffffffffffffffffffffff16815260200191505060405180910390f35b34156105f657600080fd5b6106156004808035906020019091908035906020019091905050611281565b005b341561062257600080fd5b61064e600480803573ffffffffffffffffffffffffffffffffffffffff169060200190919050506113fb565b6040518082815260200191505060405180910390f35b341561066f57600080fd5b610677611444565b604051808263ffffffff1663ffffffff16815260200191505060405180910390f35b34156106a457600080fd5b6106ac61145a565b005b34156106b957600080fd5b6106c16114ee565b6040518080602001828103825283818151815260200191508051906020019080838360005b838110156107015780820151818401526020810190506106e6565b50505050905090810190601f16801561072e5780820380516001836020036101000a031916815260200191505b509250505060405180910390f35b341561074757600080fd5b61075d600480803590602001909190505061158c565b604051808215151515815260200191505060405180910390f35b341561078257600080fd5b6107ae600480803573ffffffffffffffffffffffffffffffffffffffff16906020019091905050611620565b005b34156107bb57600080fd5b6107f0600480803573ffffffffffffffffffffffffffffffffffffffff169060200190919080359060200190919050506116fa565b005b34156107fd57600080fd5b610805611776565b6040518082815260200191505060405180910390f35b341561082657600080fd5b61083c600480803590602001909190505061177c565b604051808273ffffffffffffffffffffffffffffffffffffffff1673ffffffffffffffffffffffffffffffffffffffff16815260200191505060405180910390f35b341561088957600080fd5b61089f60048080359060200190919050506117af565b6040518082815260200191505060405180910390f35b34156108c057600080fd5b6108d66004808035906020019091905050611925565b604051808215151515815260200191505060405180910390f35b34156108fb57600080fd5b6109036119b9565b005b341561091057600080fd5b6109266004808035906020019091905050611ae9565b604051808273ffffffffffffffffffffffffffffffffffffffff1673ffffffffffffffffffffffffffffffffffffffff16815260200191505060405180910390f35b60036020528060005260406000206000915054906101000a900473ffffffffffffffffffffffffffffffffffffffff1681565b60008060149054906101000a900460ff161515156109b857600080fd5b6001838154811015156109c757fe5b906000526020600020906007020190506109e13384611b1c565b15156109ec57600080fd5b610a478160e06040519081016040529081600082015481526020016001820154815260200160028201548152602001600382015481526020016004820154815260200160058201548152602001600682015481525050611b88565b1515610a5257600080fd5b610a5e83338442611ba8565b62278d0042018160020181905550505050565b600080600080600060149054906101000a900460ff16151515610a9357600080fd5b6001600980549050038511151515610aaa57600080fd5b600985815481101515610ab957fe5b9060005260206000209060090201935083600201543410151515610adc57600080fd5b33600460008660000154815260200190815260200160002060006101000a81548173ffffffffffffffffffffffffffffffffffffffff021916908373ffffffffffffffffffffffffffffffffffffffff1602179055508360010160009054906101000a900473ffffffffffffffffffffffffffffffffffffffff1692508360020154915060018460000154815481101515610b7357fe5b90600052602060002090600702019050428160020181905550610bbf8460010160009054906101000a900473ffffffffffffffffffffffffffffffffffffffff16338660000154610e29565b600985815481101515610bce57fe5b90600052602060002090600902016000808201600090556001820160006101000a81549073ffffffffffffffffffffffffffffffffffffffff02191690556002820160009055600382016000905560048201600090556005820160009055600682016000905560078201600090556008820160009055505081600a60008573ffffffffffffffffffffffffffffffffffffffff1673ffffffffffffffffffffffffffffffffffffffff168152602001908152602001600020819055505050505050565b60068054600181600116156101000203166002900480601f016020809104026020016040519081016040528092919081815260200182805460018160011615610100020316600290048015610d275780601f10610cfc57610100808354040283529160200191610d27565b820191906000526020600020905b815481529060010190602001808311610d0a57829003601f168201915b505050505081565b600060149054906101000a900460ff16151515610d4b57600080fd5b610d553382611b1c565b1515610d6057600080fd5b816004600083815260200190815260200160002060006101000a81548173ffffffffffffffffffffffffffffffffffffffff021916908373ffffffffffffffffffffffffffffffffffffffff160217905550808273ffffffffffffffffffffffffffffffffffffffff163373ffffffffffffffffffffffffffffffffffffffff167f8c5be1e5ebec7d5bd14f71427d1e84f3dd0314c0f7b2291e5b200ac8c7c3b92560405160405180910390a45050565b60006001905090565b60006001808054905003905090565b600060149054906101000a900460ff16151515610e4557600080fd5b3373ffffffffffffffffffffffffffffffffffffffff166004600083815260200190815260200160002060009054906101000a900473ffffffffffffffffffffffffffffffffffffffff1673ffffffffffffffffffffffffffffffffffffffff16141515610eb257600080fd5b610ebc8382611b1c565b1515610ec757600080fd5b600073ffffffffffffffffffffffffffffffffffffffff168273ffffffffffffffffffffffffffffffffffffffff1614151515610f0357600080fd5b610f0e838383611d75565b505050565b6000809054906101000a900473ffffffffffffffffffffffffffffffffffffffff1681565b6000809054906101000a900473ffffffffffffffffffffffffffffffffffffffff1673ffffffffffffffffffffffffffffffffffffffff163373ffffffffffffffffffffffffffffffffffffffff16141515610f9357600080fd5b600060149054906101000a900460ff161515610fae57600080fd5b60008060146101000a81548160ff021916908315150217905550565b600080600080600080600080600080600060149054906101000a900460ff16151515610ff557600080fd5b60098b81548110151561100457fe5b90600052602060002090600902019050806000015499508060010160009054906101000a900473ffffffffffffffffffffffffffffffffffffffff16985080600201549750806003015496508060040154955080600501549450806006015493508060070154925080600801549150509193959799909294969850565b600060149054906101000a900460ff1615151561109d57600080fd5b6110a73382611b1c565b15156110b257600080fd5b816005600083815260200190815260200160002060006101000a81548173ffffffffffffffffffffffffffffffffffffffff021916908373ffffffffffffffffffffffffffffffffffffffff1602179055505050565b600a6020528060005260406000206000915090505481565b600060149054906101000a900460ff1681565b6000809054906101000a900473ffffffffffffffffffffffffffffffffffffffff1673ffffffffffffffffffffffffffffffffffffffff163373ffffffffffffffffffffffffffffffffffffffff1614151561118e57600080fd5b6000809054906101000a900473ffffffffffffffffffffffffffffffffffffffff1673ffffffffffffffffffffffffffffffffffffffff166108fc3073ffffffffffffffffffffffffffffffffffffffff16319081150290604051600060405180830381858888f19350505050151561120657600080fd5b565b60006003600083815260200190815260200160002060009054906101000a900473ffffffffffffffffffffffffffffffffffffffff169050600073ffffffffffffffffffffffffffffffffffffffff168173ffffffffffffffffffffffffffffffffffffffff161415151561127c57600080fd5b919050565b600080600060149054906101000a900460ff161515156112a057600080fd5b6112aa3385611b1c565b15156112b557600080fd5b6112bf8484611ed8565b15156112ca57600080fd5b6001848154811015156112d957fe5b906000526020600020906007020191506001838154811015156112f857fe5b906000526020600020906007020190506113638260e06040519081016040529081600082015481526020016001820154815260200160028201548152602001600382015481526020016004820154815260200160058201548152602001600682015481525050611feb565b151561136e57600080fd5b6113c98160e06040519081016040529081600082015481526020016001820154815260200160028201548152602001600382015481526020016004820154815260200160058201548152602001600682015481525050611feb565b15156113d457600080fd5b6113e08285838661200b565b15156113eb57600080fd5b6113f584846120ec565b50505050565b6000600260008373ffffffffffffffffffffffffffffffffffffffff1673ffffffffffffffffffffffffffffffffffffffff168152602001908152602001600020549050919050565b600060159054906101000a900463ffffffff1681565b6000809054906101000a900473ffffffffffffffffffffffffffffffffffffffff1673ffffffffffffffffffffffffffffffffffffffff163373ffffffffffffffffffffffffffffffffffffffff161415156114b557600080fd5b600060149054906101000a900460ff161515156114d157600080fd5b6001600060146101000a81548160ff021916908315150217905550565b60078054600181600116156101000203166002900480601f0160208091040260200160405190810160405280929190818152602001828054600181600116156101000203166002900480156115845780601f1061155957610100808354040283529160200191611584565b820191906000526020600020905b81548152906001019060200180831161156757829003601f168201915b505050505081565b60008060008311151561159e57600080fd5b6001838154811015156115ad57fe5b906000526020600020906007020190506116188160e06040519081016040529081600082015481526020016001820154815260200160028201548152602001600382015481526020016004820154815260200160058201548152602001600682015481525050611b88565b915050919050565b6000809054906101000a900473ffffffffffffffffffffffffffffffffffffffff1673ffffffffffffffffffffffffffffffffffffffff163373ffffffffffffffffffffffffffffffffffffffff1614151561167b57600080fd5b600073ffffffffffffffffffffffffffffffffffffffff168173ffffffffffffffffffffffffffffffffffffffff16141515156116b757600080fd5b806000806101000a81548173ffffffffffffffffffffffffffffffffffffffff021916908373ffffffffffffffffffffffffffffffffffffffff16021790555050565b600060149054906101000a900460ff1615151561171657600080fd5b600073ffffffffffffffffffffffffffffffffffffffff168273ffffffffffffffffffffffffffffffffffffffff161415151561175257600080fd5b61175c3382611b1c565b151561176757600080fd5b611772338383611d75565b5050565b60085481565b60046020528060005260406000206000915054906101000a900473ffffffffffffffffffffffffffffffffffffffff1681565b600080600080600080600080600060149054906101000a900460ff161515156117d757600080fd5b6001898154811015156117e657fe5b906000526020600020906007020196508660050154955060018681548110151561180c57fe5b90600052602060002090600702019450600087600101541415151561183057600080fd5b61188b8760e06040519081016040529081600082015481526020016001820154815260200160028201548152602001600382015481526020016004820154815260200160058201548152602001600682015481525050612260565b151561189657600080fd5b866006015493508660060154856006015411156118b557846006015493505b600285600001548860000154018115156118cb57fe5b049250600360008a815260200190815260200160002060009054906101000a900473ffffffffffffffffffffffffffffffffffffffff1691506119148987600187018686612281565b905080975050505050505050919050565b60008060008311151561193757600080fd5b60018381548110151561194657fe5b906000526020600020906007020190506119b18160e06040519081016040529081600082015481526020016001820154815260200160028201548152602001600382015481526020016004820154815260200160058201548152602001600682015481525050611feb565b915050919050565b600060149054906101000a900460ff161515156119d557600080fd5b600073ffffffffffffffffffffffffffffffffffffffff163373ffffffffffffffffffffffffffffffffffffffff1614151515611a1157600080fd5b611a1a33612429565b1515611a2557600080fd5b3373ffffffffffffffffffffffffffffffffffffffff166108fc600a60003373ffffffffffffffffffffffffffffffffffffffff1673ffffffffffffffffffffffffffffffffffffffff168152602001908152602001600020549081150290604051600060405180830381858888f193505050501515611aa457600080fd5b600a60003373ffffffffffffffffffffffffffffffffffffffff1673ffffffffffffffffffffffffffffffffffffffff16815260200190815260200160002060009055565b60056020528060005260406000206000915054906101000a900473ffffffffffffffffffffffffffffffffffffffff1681565b60008273ffffffffffffffffffffffffffffffffffffffff166003600084815260200190815260200160002060009054906101000a900473ffffffffffffffffffffffffffffffffffffffff1673ffffffffffffffffffffffffffffffffffffffff1614905092915050565b6000808260a00151148015611ba1575042826040015111155b9050919050565b611bb061249a565b610120604051908101604052808681526020018573ffffffffffffffffffffffffffffffffffffffff168152602001848152602001838152602001600187815481101515611bfa57fe5b9060005260206000209060070201600101548152602001600187815481101515611c2057fe5b9060005260206000209060070201600601548152602001600187815481101515611c4657fe5b9060005260206000209060070201600001548152602001600187815481101515611c6c57fe5b9060005260206000209060070201600301548152602001600187815481101515611c9257fe5b906000526020600020906007020160040154815250905060098054806001018281611cbd91906124fd565b916000526020600020906009020160008390919091506000820151816000015560208201518160010160006101000a81548173ffffffffffffffffffffffffffffffffffffffff021916908373ffffffffffffffffffffffffffffffffffffffff16021790555060408201518160020155606082015181600301556080820151816004015560a0820151816005015560c0820151816006015560e0820151816007015561010082015181600801555050505050505050565b600260008373ffffffffffffffffffffffffffffffffffffffff1673ffffffffffffffffffffffffffffffffffffffff16815260200190815260200160002060008154809291906001019190505550816003600083815260200190815260200160002060006101000a81548173ffffffffffffffffffffffffffffffffffffffff021916908373ffffffffffffffffffffffffffffffffffffffff160217905550600073ffffffffffffffffffffffffffffffffffffffff168373ffffffffffffffffffffffffffffffffffffffff16141515611ed357600260008473ffffffffffffffffffffffffffffffffffffffff1673ffffffffffffffffffffffffffffffffffffffff16815260200190815260200160002060008154809291906001900391905055506004600082815260200190815260200160002060006101000a81549073ffffffffffffffffffffffffffffffffffffffff02191690555b505050565b60008060006003600086815260200190815260200160002060009054906101000a900473ffffffffffffffffffffffffffffffffffffffff1691506003600085815260200190815260200160002060009054906101000a900473ffffffffffffffffffffffffffffffffffffffff1690508073ffffffffffffffffffffffffffffffffffffffff168273ffffffffffffffffffffffffffffffffffffffff161480611fe157508173ffffffffffffffffffffffffffffffffffffffff166005600086815260200190815260200160002060009054906101000a900473ffffffffffffffffffffffffffffffffffffffff1673ffffffffffffffffffffffffffffffffffffffff16145b9250505092915050565b6000808260a00151148015612004575042826040015111155b9050919050565b60008184141561201e57600090506120e4565b81856003015414806120335750818560040154145b1561204157600090506120e4565b83836003015414806120565750838360040154145b1561206457600090506120e4565b60008360030154148061207b575060008560030154145b1561208957600190506120e4565b8460030154836003015414806120a6575084600401548360030154145b156120b457600090506120e4565b8460030154836004015414806120d1575084600401548360040154145b156120df57600090506120e4565b600190505b949350505050565b6000806001848154811015156120fe57fe5b9060005260206000209060070201915060018381548110151561211d57fe5b9060005260206000209060070201905082826005018190555061213f82612474565b61214881612474565b6005600085815260200190815260200160002060006101000a81549073ffffffffffffffffffffffffffffffffffffffff02191690556005600084815260200190815260200160002060006101000a81549073ffffffffffffffffffffffffffffffffffffffff02191690557f6b4808987a5cecdf67d54ca5dc20664fafca80ef7195097800c12549245ab20d6003600086815260200190815260200160002060009054906101000a900473ffffffffffffffffffffffffffffffffffffffff168585604051808473ffffffffffffffffffffffffffffffffffffffff1673ffffffffffffffffffffffffffffffffffffffff168152602001838152602001828152602001935050505060405180910390a150505050565b6000808260a001511415801561227a575042826040015111155b9050919050565b600061228b61252f565b600063ffffffff88111515156122a057600080fd5b63ffffffff87111515156122b357600080fd5b61ffff86111515156122c457600080fd5b60e060405190810160405280868152602001428152602001600081526020018981526020018881526020016000815260200187815250915060018054806001018281612310919061256d565b91600052602060002090600702016000849091909150600082015181600001556020820151816001015560408201518160020155606082015181600301556080820151816004015560a0820151816005015560c082015181600601555050506001808054905003905063ffffffff811115151561238c57600080fd5b7fe6f1819515ac756027ac2607ca2442ef24fabea640f62afb9e2848050883e18784828a8a8a604051808673ffffffffffffffffffffffffffffffffffffffff1673ffffffffffffffffffffffffffffffffffffffff1681526020018581526020018481526020018381526020018281526020019550505050505060405180910390a161241b60008583611d75565b809250505095945050505050565b600080600a60008473ffffffffffffffffffffffffffffffffffffffff1673ffffffffffffffffffffffffffffffffffffffff16815260200190815260200160002054119050919050565b600060159054906101000a900463ffffffff1663ffffffff164201816002018190555050565b6101206040519081016040528060008152602001600073ffffffffffffffffffffffffffffffffffffffff168152602001600081526020016000815260200160008152602001600081526020016000815260200160008152602001600081525090565b81548183558181151161252a57600902816009028360005260206000209182019101612529919061259f565b5b505050565b60e060405190810160405280600081526020016000815260200160008152602001600081526020016000815260200160008152602001600081525090565b81548183558181151161259a576007028160070283600052602060002091820191016125999190612625565b5b505050565b61262291905b8082111561261e576000808201600090556001820160006101000a81549073ffffffffffffffffffffffffffffffffffffffff02191690556002820160009055600382016000905560048201600090556005820160009055600682016000905560078201600090556008820160009055506009016125a5565b5090565b90565b61267991905b80821115612675576000808201600090556001820160009055600282016000905560038201600090556004820160009055600582016000905560068201600090555060070161262b565b5090565b905600a165627a7a723058205a5ad68abc4b9284233ccb6808344150e1ed7aa5fc75a8d42298c4b75ce84b1d0029",
  "source": "pragma solidity ^0.4.18;\n\nimport \"./PuppyBreeding.sol\";\n\ncontract PuppyAuction is PuppyBreeding {\n\n  struct AuctionPuppy {\n    uint256 auctionPuppyId;\n    address auctionPuppyOwner;\n    uint256 auctionPuppyPrice;\n    uint256 auctionPuppyStartTime;\n    uint256 auctionPuppyBirthTime;\n    uint256 auctionPuppyGeneration;\n    uint256 auctionPuppyGenes;\n    uint256 auctionPuppyMatron;\n    uint256 auctionPuppySire;\n  }\n\n  AuctionPuppy[] auctionPuppies;\n\n  mapping (address => uint256) public auctionBalances;\n\n  function _isReadyForAuction(Puppy _puppy) internal view returns (bool) {\n    return (_puppy.siringWithId == 0) && (_puppy.cooldownEndTime <= now);\n  }\n\n  function isReadyForAuction(uint256 _puppyId) public view returns (bool) {\n    require(_puppyId > 0);\n    Puppy storage pup = puppies[_puppyId];\n    return _isReadyForAuction(pup);\n  }\n\n  function _createAuction(uint256 _puppyId, address _ownership, uint256 _price, uint256 _time) internal{\n    AuctionPuppy memory _auctionpuppy= AuctionPuppy ({\n      auctionPuppyId: _puppyId,\n      auctionPuppyOwner: _ownership,\n      auctionPuppyPrice: _price,\n      auctionPuppyStartTime: _time,\n      auctionPuppyBirthTime: puppies[_puppyId].birthtime,\n      auctionPuppyGeneration: puppies[_puppyId].generation,\n      auctionPuppyGenes: puppies[_puppyId].genes,\n      auctionPuppyMatron: puppies[_puppyId].matronId,\n      auctionPuppySire: puppies[_puppyId].sireId\n    });\n\n    auctionPuppies.push(_auctionpuppy);\n  }\n\n  function createAuction(uint256 _puppyId, uint256 _price) public whenNotPaused {\n    Puppy storage _puppy = puppies[_puppyId];\n    require(_own(msg.sender, _puppyId));\n    require(_isReadyForAuction(_puppy));\n\n    _createAuction(_puppyId, msg.sender, _price, uint256(now));\n    _puppy.cooldownEndTime = uint256(now) + uint256(30 days);\n  }\n\n  function checkAuctionPuppies(uint256 _auctionId)\n    public\n    view\n    whenNotPaused\n    returns (\n      uint256 PuppyId,\n      address PuppyOwner,\n      uint256 PuppyPrice,\n      uint256 PuppyStartTime,\n      uint256 PuppyBirthTime,\n      uint256 PuppyGeneration,\n      uint256 PuppyGenes,\n      uint256 PuppyMatron,\n      uint256 PuppySire\n  ) {\n      AuctionPuppy storage _auctionPuppy = auctionPuppies[_auctionId];\n      PuppyId = _auctionPuppy.auctionPuppyId;\n      PuppyOwner = _auctionPuppy.auctionPuppyOwner;\n      PuppyPrice = _auctionPuppy.auctionPuppyPrice;\n      PuppyStartTime = _auctionPuppy.auctionPuppyStartTime;\n      PuppyBirthTime = _auctionPuppy.auctionPuppyBirthTime;\n      PuppyGeneration = _auctionPuppy.auctionPuppyGeneration;\n      PuppyGenes = _auctionPuppy.auctionPuppyGenes;\n      PuppyMatron = _auctionPuppy.auctionPuppyMatron;\n      PuppySire = _auctionPuppy.auctionPuppySire;\n  }\n\n  function bugAuctionPuppy(uint256 _auctionId) public payable whenNotPaused {\n    require(_auctionId <= (auctionPuppies.length -1));\n\n    AuctionPuppy storage _auctionPuppy = auctionPuppies[_auctionId];\n\n    require(msg.value >= _auctionPuppy.auctionPuppyPrice);\n\n    puppyIndexToApproved[_auctionPuppy.auctionPuppyId] = msg.sender;\n    address previousOwner = _auctionPuppy.auctionPuppyOwner;\n    uint256 sellPrice = _auctionPuppy.auctionPuppyPrice;\n\n    Puppy storage _puppy = puppies[_auctionPuppy.auctionPuppyId];\n    _puppy.cooldownEndTime = uint256(now);\n\n    transferFrom(_auctionPuppy.auctionPuppyOwner, msg.sender, _auctionPuppy.auctionPuppyId);\n\n    delete auctionPuppies[_auctionId];\n    auctionBalances[previousOwner] = sellPrice;\n    \n  }\n\n  function withdrawAuctionBalance() public whenNotPaused {\n    require(msg.sender != address(0));\n    require(_haveAuctionBalance(msg.sender));\n    msg.sender.transfer(auctionBalances[msg.sender]);\n    delete auctionBalances[msg.sender];\n  }\n\n  function _haveAuctionBalance(address _owner) internal view returns (bool) {\n    return (auctionBalances[_owner]>0);\n  }\n\n\n\n}\n",
  "sourcePath": "/Users/Barry/Desktop/dapp/cryptopuppies/contracts/PuppyAuction.sol",
  "compiler": {
    "name": "solc",
    "version": "0.4.18+commit.9cf6e910.Emscripten.clang"
  },
  "schemaVersion": "1.0.1",
  "updatedAt": "2018-05-17T22:10:07.199Z"
}