{
  "contractName": "PuppyAccessControl",
  "abi": [
    {
      "constant": true,
      "inputs": [],
      "name": "BossAddress",
      "outputs": [
        {
          "name": "",
          "type": "address"
        }
      ],
      "payable": false,
      "stateMutability": "view",
      "type": "function"
    },
    {
      "constant": false,
      "inputs": [],
      "name": "unpause",
      "outputs": [],
      "payable": false,
      "stateMutability": "nonpayable",
      "type": "function"
    },
    {
      "constant": true,
      "inputs": [],
      "name": "paused",
      "outputs": [
        {
          "name": "",
          "type": "bool"
        }
      ],
      "payable": false,
      "stateMutability": "view",
      "type": "function"
    },
    {
      "constant": false,
      "inputs": [],
      "name": "withdrawBalance",
      "outputs": [],
      "payable": false,
      "stateMutability": "nonpayable",
      "type": "function"
    },
    {
      "constant": false,
      "inputs": [],
      "name": "pause",
      "outputs": [],
      "payable": false,
      "stateMutability": "nonpayable",
      "type": "function"
    },
    {
      "constant": false,
      "inputs": [
        {
          "name": "_newboss",
          "type": "address"
        }
      ],
      "name": "setBoss",
      "outputs": [],
      "payable": false,
      "stateMutability": "nonpayable",
      "type": "function"
    }
  ],
  "bytecode": "0x606060405260008060146101000a81548160ff021916908315150217905550341561002957600080fd5b6104b0806100386000396000f300606060405260043610610078576000357c0100000000000000000000000000000000000000000000000000000000900463ffffffff16806336e40d131461007d5780633f4ba83a146100d25780635c975abb146100e75780635fd8c710146101145780638456cb5914610129578063a7efbc8e1461013e575b600080fd5b341561008857600080fd5b610090610177565b604051808273ffffffffffffffffffffffffffffffffffffffff1673ffffffffffffffffffffffffffffffffffffffff16815260200191505060405180910390f35b34156100dd57600080fd5b6100e561019c565b005b34156100f257600080fd5b6100fa61022e565b604051808215151515815260200191505060405180910390f35b341561011f57600080fd5b610127610241565b005b341561013457600080fd5b61013c610316565b005b341561014957600080fd5b610175600480803573ffffffffffffffffffffffffffffffffffffffff169060200190919050506103aa565b005b6000809054906101000a900473ffffffffffffffffffffffffffffffffffffffff1681565b6000809054906101000a900473ffffffffffffffffffffffffffffffffffffffff1673ffffffffffffffffffffffffffffffffffffffff163373ffffffffffffffffffffffffffffffffffffffff161415156101f757600080fd5b600060149054906101000a900460ff16151561021257600080fd5b60008060146101000a81548160ff021916908315150217905550565b600060149054906101000a900460ff1681565b6000809054906101000a900473ffffffffffffffffffffffffffffffffffffffff1673ffffffffffffffffffffffffffffffffffffffff163373ffffffffffffffffffffffffffffffffffffffff1614151561029c57600080fd5b6000809054906101000a900473ffffffffffffffffffffffffffffffffffffffff1673ffffffffffffffffffffffffffffffffffffffff166108fc3073ffffffffffffffffffffffffffffffffffffffff16319081150290604051600060405180830381858888f19350505050151561031457600080fd5b565b6000809054906101000a900473ffffffffffffffffffffffffffffffffffffffff1673ffffffffffffffffffffffffffffffffffffffff163373ffffffffffffffffffffffffffffffffffffffff1614151561037157600080fd5b600060149054906101000a900460ff1615151561038d57600080fd5b6001600060146101000a81548160ff021916908315150217905550565b6000809054906101000a900473ffffffffffffffffffffffffffffffffffffffff1673ffffffffffffffffffffffffffffffffffffffff163373ffffffffffffffffffffffffffffffffffffffff1614151561040557600080fd5b600073ffffffffffffffffffffffffffffffffffffffff168173ffffffffffffffffffffffffffffffffffffffff161415151561044157600080fd5b806000806101000a81548173ffffffffffffffffffffffffffffffffffffffff021916908373ffffffffffffffffffffffffffffffffffffffff160217905550505600a165627a7a72305820b3131f61d46c15ed8b1ca86af9aa02eec78cabfbc52864456b2f99202392269b0029",
  "source": "pragma solidity ^0.4.18;\n\ncontract PuppyAccessControl {\n\n   address public BossAddress;\n\n   bool public paused = false;\n\n   modifier onlyBoss() {\n     require(msg.sender == BossAddress);\n     _;\n   }\n\n   function setBoss(address _newboss) public onlyBoss {\n     require(_newboss != address(0));\n     BossAddress = _newboss;\n   }\n\n   function withdrawBalance() external onlyBoss {\n     BossAddress.transfer(this.balance);\n   }\n\n   modifier whenNotPaused() {\n     require(!paused);\n     _;\n   }\n\n   modifier whenPaused() {\n     require(paused);\n     _;\n   }\n\n   function pause() public onlyBoss whenNotPaused {\n     paused = true;\n   }\n\n   function unpause() public onlyBoss whenPaused {\n     paused = false;\n   }\n}\n",
  "sourcePath": "/Users/Barry/Desktop/dapp/cryptopuppies/contracts/PuppyAccessControl.sol",
  "compiler": {
    "name": "solc",
    "version": "0.4.18+commit.9cf6e910.Emscripten.clang"
  },
  "schemaVersion": "1.0.1",
  "updatedAt": "2018-05-17T22:10:07.183Z"
}