{
  "contractName": "PuppyBase",
  "abi": [
    {
      "constant": true,
      "inputs": [
        {
          "name": "",
          "type": "uint256"
        }
      ],
      "name": "puppyIndexToOwner",
      "outputs": [
        {
          "name": "",
          "type": "address"
        }
      ],
      "payable": false,
      "stateMutability": "view",
      "type": "function"
    },
    {
      "constant": true,
      "inputs": [],
      "name": "BossAddress",
      "outputs": [
        {
          "name": "",
          "type": "address"
        }
      ],
      "payable": false,
      "stateMutability": "view",
      "type": "function"
    },
    {
      "constant": false,
      "inputs": [],
      "name": "unpause",
      "outputs": [],
      "payable": false,
      "stateMutability": "nonpayable",
      "type": "function"
    },
    {
      "constant": true,
      "inputs": [],
      "name": "paused",
      "outputs": [
        {
          "name": "",
          "type": "bool"
        }
      ],
      "payable": false,
      "stateMutability": "view",
      "type": "function"
    },
    {
      "constant": false,
      "inputs": [],
      "name": "withdrawBalance",
      "outputs": [],
      "payable": false,
      "stateMutability": "nonpayable",
      "type": "function"
    },
    {
      "constant": true,
      "inputs": [],
      "name": "cooldown",
      "outputs": [
        {
          "name": "",
          "type": "uint32"
        }
      ],
      "payable": false,
      "stateMutability": "view",
      "type": "function"
    },
    {
      "constant": false,
      "inputs": [],
      "name": "pause",
      "outputs": [],
      "payable": false,
      "stateMutability": "nonpayable",
      "type": "function"
    },
    {
      "constant": false,
      "inputs": [
        {
          "name": "_newboss",
          "type": "address"
        }
      ],
      "name": "setBoss",
      "outputs": [],
      "payable": false,
      "stateMutability": "nonpayable",
      "type": "function"
    },
    {
      "constant": true,
      "inputs": [
        {
          "name": "",
          "type": "uint256"
        }
      ],
      "name": "puppyIndexToApproved",
      "outputs": [
        {
          "name": "",
          "type": "address"
        }
      ],
      "payable": false,
      "stateMutability": "view",
      "type": "function"
    },
    {
      "constant": true,
      "inputs": [
        {
          "name": "",
          "type": "uint256"
        }
      ],
      "name": "sireAllowToAddress",
      "outputs": [
        {
          "name": "",
          "type": "address"
        }
      ],
      "payable": false,
      "stateMutability": "view",
      "type": "function"
    },
    {
      "anonymous": false,
      "inputs": [
        {
          "indexed": false,
          "name": "NewPuppyOwner",
          "type": "address"
        },
        {
          "indexed": false,
          "name": "PuppyId",
          "type": "uint256"
        },
        {
          "indexed": false,
          "name": "MatronId",
          "type": "uint256"
        },
        {
          "indexed": false,
          "name": "SireId",
          "type": "uint256"
        },
        {
          "indexed": false,
          "name": "Generation",
          "type": "uint256"
        }
      ],
      "name": "NewBrith",
      "type": "event"
    }
  ],
  "bytecode": "0x606060405260008060146101000a81548160ff021916908315150217905550601e600060156101000a81548163ffffffff021916908363ffffffff160217905550341561004b57600080fd5b6106e88061005a6000396000f3006060604052600436106100a3576000357c0100000000000000000000000000000000000000000000000000000000900463ffffffff168062eab0e3146100a857806336e40d131461010b5780633f4ba83a146101605780635c975abb146101755780635fd8c710146101a2578063787a08a6146101b75780638456cb59146101ec578063a7efbc8e14610201578063ba94042d1461023a578063e227f7321461029d575b600080fd5b34156100b357600080fd5b6100c96004808035906020019091905050610300565b604051808273ffffffffffffffffffffffffffffffffffffffff1673ffffffffffffffffffffffffffffffffffffffff16815260200191505060405180910390f35b341561011657600080fd5b61011e610333565b604051808273ffffffffffffffffffffffffffffffffffffffff1673ffffffffffffffffffffffffffffffffffffffff16815260200191505060405180910390f35b341561016b57600080fd5b610173610358565b005b341561018057600080fd5b6101886103ea565b604051808215151515815260200191505060405180910390f35b34156101ad57600080fd5b6101b56103fd565b005b34156101c257600080fd5b6101ca6104d2565b604051808263ffffffff1663ffffffff16815260200191505060405180910390f35b34156101f757600080fd5b6101ff6104e8565b005b341561020c57600080fd5b610238600480803573ffffffffffffffffffffffffffffffffffffffff1690602001909190505061057c565b005b341561024557600080fd5b61025b6004808035906020019091905050610656565b604051808273ffffffffffffffffffffffffffffffffffffffff1673ffffffffffffffffffffffffffffffffffffffff16815260200191505060405180910390f35b34156102a857600080fd5b6102be6004808035906020019091905050610689565b604051808273ffffffffffffffffffffffffffffffffffffffff1673ffffffffffffffffffffffffffffffffffffffff16815260200191505060405180910390f35b60036020528060005260406000206000915054906101000a900473ffffffffffffffffffffffffffffffffffffffff1681565b6000809054906101000a900473ffffffffffffffffffffffffffffffffffffffff1681565b6000809054906101000a900473ffffffffffffffffffffffffffffffffffffffff1673ffffffffffffffffffffffffffffffffffffffff163373ffffffffffffffffffffffffffffffffffffffff161415156103b357600080fd5b600060149054906101000a900460ff1615156103ce57600080fd5b60008060146101000a81548160ff021916908315150217905550565b600060149054906101000a900460ff1681565b6000809054906101000a900473ffffffffffffffffffffffffffffffffffffffff1673ffffffffffffffffffffffffffffffffffffffff163373ffffffffffffffffffffffffffffffffffffffff1614151561045857600080fd5b6000809054906101000a900473ffffffffffffffffffffffffffffffffffffffff1673ffffffffffffffffffffffffffffffffffffffff166108fc3073ffffffffffffffffffffffffffffffffffffffff16319081150290604051600060405180830381858888f1935050505015156104d057600080fd5b565b600060159054906101000a900463ffffffff1681565b6000809054906101000a900473ffffffffffffffffffffffffffffffffffffffff1673ffffffffffffffffffffffffffffffffffffffff163373ffffffffffffffffffffffffffffffffffffffff1614151561054357600080fd5b600060149054906101000a900460ff1615151561055f57600080fd5b6001600060146101000a81548160ff021916908315150217905550565b6000809054906101000a900473ffffffffffffffffffffffffffffffffffffffff1673ffffffffffffffffffffffffffffffffffffffff163373ffffffffffffffffffffffffffffffffffffffff161415156105d757600080fd5b600073ffffffffffffffffffffffffffffffffffffffff168173ffffffffffffffffffffffffffffffffffffffff161415151561061357600080fd5b806000806101000a81548173ffffffffffffffffffffffffffffffffffffffff021916908373ffffffffffffffffffffffffffffffffffffffff16021790555050565b60046020528060005260406000206000915054906101000a900473ffffffffffffffffffffffffffffffffffffffff1681565b60056020528060005260406000206000915054906101000a900473ffffffffffffffffffffffffffffffffffffffff16815600a165627a7a7230582002f6435667c844fa84c860bc29b3b780e7478f93cf6869cba690876b55167b670029",
  "source": "pragma solidity ^0.4.18;\n\nimport \"./PuppyAccessControl.sol\";\n\ncontract PuppyBase is PuppyAccessControl {\n\n  event NewBrith(address NewPuppyOwner, uint256 PuppyId, uint256 MatronId, uint256 SireId, uint256 Generation);\n\n  struct Puppy {\n    uint256 genes;\n    uint256 birthtime;\n    uint256 cooldownEndTime;\n    uint256 matronId;\n    uint256 sireId;\n    uint256 siringWithId;\n    uint256 generation;\n  }\n\n  uint32 public cooldown = uint32(30 seconds);\n\n  Puppy[] puppies;\n\n  mapping (address => uint256) ownershipTokenCount;\n\n  mapping (uint256 => address) public puppyIndexToOwner;\n\n  mapping (uint256 => address) public puppyIndexToApproved;\n\n  mapping (uint256 => address) public sireAllowToAddress;\n\n  function _transfer(address _from, address _to, uint256 PuppyId) internal {\n\n    ownershipTokenCount[_to] ++;\n\n    puppyIndexToOwner[PuppyId] = _to;\n\n    if (_from != address(0)){\n      ownershipTokenCount[_from] --;\n      delete puppyIndexToApproved[PuppyId];\n    }\n  }\n\n  function _createPuppy(\n      uint256 _matronId,\n      uint256 _sireId,\n      uint256 _generation,\n      uint256 _genes,\n      address _owner\n  )\n      internal\n      returns (uint)\n  {\n    require(_matronId <= 4294967295);\n    require(_sireId <= 4294967295);\n    require(_generation <= 65535);\n\n    Puppy memory _puppy= Puppy({\n      genes: _genes,\n      birthtime: uint256(now),\n      cooldownEndTime: 0,\n      matronId: _matronId,\n      sireId: _sireId,\n      siringWithId: 0,\n      generation: _generation\n    });\n\n    puppies.push(_puppy);\n\n    uint256 newPuppyId = puppies.length -1;\n\n    require(newPuppyId <= 4294967295);\n\n    NewBrith(_owner, newPuppyId, _matronId, _sireId, _generation);\n\n    _transfer(0, _owner, newPuppyId);\n\n    return newPuppyId;\n\n  }\n}\n",
  "sourcePath": "/Users/Barry/Desktop/dapp/cryptopuppies/contracts/PuppyBase.sol",
  "compiler": {
    "name": "solc",
    "version": "0.4.18+commit.9cf6e910.Emscripten.clang"
  },
  "schemaVersion": "1.0.1",
  "updatedAt": "2018-05-17T22:10:07.188Z"
}