{
  "contractName": "PuppyCore",
  "abi": [
    {
      "constant": true,
      "inputs": [
        {
          "name": "",
          "type": "uint256"
        }
      ],
      "name": "puppyIndexToOwner",
      "outputs": [
        {
          "name": "",
          "type": "address"
        }
      ],
      "payable": false,
      "stateMutability": "view",
      "type": "function"
    },
    {
      "constant": false,
      "inputs": [
        {
          "name": "_puppyId",
          "type": "uint256"
        },
        {
          "name": "_price",
          "type": "uint256"
        }
      ],
      "name": "createAuction",
      "outputs": [],
      "payable": false,
      "stateMutability": "nonpayable",
      "type": "function"
    },
    {
      "constant": false,
      "inputs": [
        {
          "name": "_auctionId",
          "type": "uint256"
        }
      ],
      "name": "bugAuctionPuppy",
      "outputs": [],
      "payable": true,
      "stateMutability": "payable",
      "type": "function"
    },
    {
      "constant": true,
      "inputs": [],
      "name": "name",
      "outputs": [
        {
          "name": "",
          "type": "string"
        }
      ],
      "payable": false,
      "stateMutability": "view",
      "type": "function"
    },
    {
      "constant": false,
      "inputs": [
        {
          "name": "_to",
          "type": "address"
        },
        {
          "name": "_tokenId",
          "type": "uint256"
        }
      ],
      "name": "approve",
      "outputs": [],
      "payable": false,
      "stateMutability": "nonpayable",
      "type": "function"
    },
    {
      "constant": true,
      "inputs": [],
      "name": "implementsERC721",
      "outputs": [
        {
          "name": "",
          "type": "bool"
        }
      ],
      "payable": false,
      "stateMutability": "pure",
      "type": "function"
    },
    {
      "constant": true,
      "inputs": [
        {
          "name": "_owner",
          "type": "address"
        },
        {
          "name": "_number",
          "type": "uint256"
        }
      ],
      "name": "puppyOfOwnerByIndex",
      "outputs": [
        {
          "name": "",
          "type": "uint256"
        }
      ],
      "payable": false,
      "stateMutability": "view",
      "type": "function"
    },
    {
      "constant": true,
      "inputs": [],
      "name": "totalSupply",
      "outputs": [
        {
          "name": "total",
          "type": "uint256"
        }
      ],
      "payable": false,
      "stateMutability": "view",
      "type": "function"
    },
    {
      "constant": true,
      "inputs": [
        {
          "name": "_puppyId",
          "type": "uint256"
        }
      ],
      "name": "checkPuppyDetail",
      "outputs": [
        {
          "name": "genes",
          "type": "uint256"
        },
        {
          "name": "birthtime",
          "type": "uint256"
        },
        {
          "name": "cooldownEndTime",
          "type": "uint256"
        },
        {
          "name": "matronId",
          "type": "uint256"
        },
        {
          "name": "sireId",
          "type": "uint256"
        },
        {
          "name": "siringWithId",
          "type": "uint256"
        },
        {
          "name": "generation",
          "type": "uint256"
        }
      ],
      "payable": false,
      "stateMutability": "view",
      "type": "function"
    },
    {
      "constant": false,
      "inputs": [
        {
          "name": "_from",
          "type": "address"
        },
        {
          "name": "_to",
          "type": "address"
        },
        {
          "name": "_tokenId",
          "type": "uint256"
        }
      ],
      "name": "transferFrom",
      "outputs": [],
      "payable": false,
      "stateMutability": "nonpayable",
      "type": "function"
    },
    {
      "constant": true,
      "inputs": [],
      "name": "BossAddress",
      "outputs": [
        {
          "name": "",
          "type": "address"
        }
      ],
      "payable": false,
      "stateMutability": "view",
      "type": "function"
    },
    {
      "constant": false,
      "inputs": [],
      "name": "unpause",
      "outputs": [],
      "payable": false,
      "stateMutability": "nonpayable",
      "type": "function"
    },
    {
      "constant": true,
      "inputs": [],
      "name": "giftPuppies",
      "outputs": [
        {
          "name": "",
          "type": "uint256"
        }
      ],
      "payable": false,
      "stateMutability": "view",
      "type": "function"
    },
    {
      "constant": true,
      "inputs": [
        {
          "name": "_auctionId",
          "type": "uint256"
        }
      ],
      "name": "checkAuctionPuppies",
      "outputs": [
        {
          "name": "PuppyId",
          "type": "uint256"
        },
        {
          "name": "PuppyOwner",
          "type": "address"
        },
        {
          "name": "PuppyPrice",
          "type": "uint256"
        },
        {
          "name": "PuppyStartTime",
          "type": "uint256"
        },
        {
          "name": "PuppyBirthTime",
          "type": "uint256"
        },
        {
          "name": "PuppyGeneration",
          "type": "uint256"
        },
        {
          "name": "PuppyGenes",
          "type": "uint256"
        },
        {
          "name": "PuppyMatron",
          "type": "uint256"
        },
        {
          "name": "PuppySire",
          "type": "uint256"
        }
      ],
      "payable": false,
      "stateMutability": "view",
      "type": "function"
    },
    {
      "constant": false,
      "inputs": [
        {
          "name": "_addr",
          "type": "address"
        },
        {
          "name": "_sireId",
          "type": "uint256"
        }
      ],
      "name": "approveSiring",
      "outputs": [],
      "payable": false,
      "stateMutability": "nonpayable",
      "type": "function"
    },
    {
      "constant": true,
      "inputs": [
        {
          "name": "",
          "type": "address"
        }
      ],
      "name": "auctionBalances",
      "outputs": [
        {
          "name": "",
          "type": "uint256"
        }
      ],
      "payable": false,
      "stateMutability": "view",
      "type": "function"
    },
    {
      "constant": true,
      "inputs": [],
      "name": "paused",
      "outputs": [
        {
          "name": "",
          "type": "bool"
        }
      ],
      "payable": false,
      "stateMutability": "view",
      "type": "function"
    },
    {
      "constant": false,
      "inputs": [],
      "name": "withdrawBalance",
      "outputs": [],
      "payable": false,
      "stateMutability": "nonpayable",
      "type": "function"
    },
    {
      "constant": true,
      "inputs": [
        {
          "name": "_tokenId",
          "type": "uint256"
        }
      ],
      "name": "ownerOf",
      "outputs": [
        {
          "name": "owner",
          "type": "address"
        }
      ],
      "payable": false,
      "stateMutability": "view",
      "type": "function"
    },
    {
      "constant": false,
      "inputs": [
        {
          "name": "matronId",
          "type": "uint256"
        },
        {
          "name": "sireId",
          "type": "uint256"
        }
      ],
      "name": "breedWith",
      "outputs": [],
      "payable": false,
      "stateMutability": "nonpayable",
      "type": "function"
    },
    {
      "constant": true,
      "inputs": [
        {
          "name": "_owner",
          "type": "address"
        }
      ],
      "name": "balanceOf",
      "outputs": [
        {
          "name": "",
          "type": "uint256"
        }
      ],
      "payable": false,
      "stateMutability": "view",
      "type": "function"
    },
    {
      "constant": true,
      "inputs": [],
      "name": "cooldown",
      "outputs": [
        {
          "name": "",
          "type": "uint32"
        }
      ],
      "payable": false,
      "stateMutability": "view",
      "type": "function"
    },
    {
      "constant": false,
      "inputs": [],
      "name": "pause",
      "outputs": [],
      "payable": false,
      "stateMutability": "nonpayable",
      "type": "function"
    },
    {
      "constant": true,
      "inputs": [],
      "name": "symbol",
      "outputs": [
        {
          "name": "",
          "type": "string"
        }
      ],
      "payable": false,
      "stateMutability": "view",
      "type": "function"
    },
    {
      "constant": true,
      "inputs": [
        {
          "name": "_puppyId",
          "type": "uint256"
        }
      ],
      "name": "isReadyForAuction",
      "outputs": [
        {
          "name": "",
          "type": "bool"
        }
      ],
      "payable": false,
      "stateMutability": "view",
      "type": "function"
    },
    {
      "constant": false,
      "inputs": [
        {
          "name": "_newboss",
          "type": "address"
        }
      ],
      "name": "setBoss",
      "outputs": [],
      "payable": false,
      "stateMutability": "nonpayable",
      "type": "function"
    },
    {
      "constant": false,
      "inputs": [
        {
          "name": "_to",
          "type": "address"
        },
        {
          "name": "_tokenId",
          "type": "uint256"
        }
      ],
      "name": "transfer",
      "outputs": [],
      "payable": false,
      "stateMutability": "nonpayable",
      "type": "function"
    },
    {
      "constant": true,
      "inputs": [],
      "name": "autoBirthFee",
      "outputs": [
        {
          "name": "",
          "type": "uint256"
        }
      ],
      "payable": false,
      "stateMutability": "view",
      "type": "function"
    },
    {
      "constant": true,
      "inputs": [
        {
          "name": "",
          "type": "uint256"
        }
      ],
      "name": "puppyIndexToApproved",
      "outputs": [
        {
          "name": "",
          "type": "address"
        }
      ],
      "payable": false,
      "stateMutability": "view",
      "type": "function"
    },
    {
      "constant": false,
      "inputs": [
        {
          "name": "_matronId",
          "type": "uint256"
        }
      ],
      "name": "giveBrith",
      "outputs": [
        {
          "name": "",
          "type": "uint256"
        }
      ],
      "payable": false,
      "stateMutability": "nonpayable",
      "type": "function"
    },
    {
      "constant": true,
      "inputs": [
        {
          "name": "_puppyId",
          "type": "uint256"
        }
      ],
      "name": "isReadyToBreed",
      "outputs": [
        {
          "name": "",
          "type": "bool"
        }
      ],
      "payable": false,
      "stateMutability": "view",
      "type": "function"
    },
    {
      "constant": false,
      "inputs": [
        {
          "name": "_genes",
          "type": "uint256"
        },
        {
          "name": "_owner",
          "type": "address"
        }
      ],
      "name": "createGiftPuppy",
      "outputs": [],
      "payable": false,
      "stateMutability": "nonpayable",
      "type": "function"
    },
    {
      "constant": false,
      "inputs": [],
      "name": "withdrawAuctionBalance",
      "outputs": [],
      "payable": false,
      "stateMutability": "nonpayable",
      "type": "function"
    },
    {
      "constant": true,
      "inputs": [],
      "name": "giftPuppiesCount",
      "outputs": [
        {
          "name": "",
          "type": "uint256"
        }
      ],
      "payable": false,
      "stateMutability": "view",
      "type": "function"
    },
    {
      "constant": true,
      "inputs": [
        {
          "name": "",
          "type": "uint256"
        }
      ],
      "name": "sireAllowToAddress",
      "outputs": [
        {
          "name": "",
          "type": "address"
        }
      ],
      "payable": false,
      "stateMutability": "view",
      "type": "function"
    },
    {
      "inputs": [],
      "payable": false,
      "stateMutability": "nonpayable",
      "type": "constructor"
    },
    {
      "payable": true,
      "stateMutability": "payable",
      "type": "fallback"
    },
    {
      "anonymous": false,
      "inputs": [
        {
          "indexed": false,
          "name": "owner",
          "type": "address"
        },
        {
          "indexed": false,
          "name": "matronId",
          "type": "uint256"
        },
        {
          "indexed": false,
          "name": "sireId",
          "type": "uint256"
        }
      ],
      "name": "Pregnant",
      "type": "event"
    },
    {
      "anonymous": false,
      "inputs": [
        {
          "indexed": true,
          "name": "from",
          "type": "address"
        },
        {
          "indexed": true,
          "name": "to",
          "type": "address"
        },
        {
          "indexed": true,
          "name": "tokenId",
          "type": "uint256"
        }
      ],
      "name": "Transfer",
      "type": "event"
    },
    {
      "anonymous": false,
      "inputs": [
        {
          "indexed": true,
          "name": "owner",
          "type": "address"
        },
        {
          "indexed": true,
          "name": "approved",
          "type": "address"
        },
        {
          "indexed": true,
          "name": "tokenId",
          "type": "uint256"
        }
      ],
      "name": "Approval",
      "type": "event"
    },
    {
      "anonymous": false,
      "inputs": [
        {
          "indexed": false,
          "name": "NewPuppyOwner",
          "type": "address"
        },
        {
          "indexed": false,
          "name": "PuppyId",
          "type": "uint256"
        },
        {
          "indexed": false,
          "name": "MatronId",
          "type": "uint256"
        },
        {
          "indexed": false,
          "name": "SireId",
          "type": "uint256"
        },
        {
          "indexed": false,
          "name": "Generation",
          "type": "uint256"
        }
      ],
      "name": "NewBrith",
      "type": "event"
    }
  ],
  "bytecode": "0x606060405260008060146101000a81548160ff021916908315150217905550601e600060156101000a81548163ffffffff021916908363ffffffff1602179055506040805190810160405280600d81526020017f43727970746f5075707069657300000000000000000000000000000000000000815250600690805190602001906200008d929190620006a5565b506040805190810160405280600281526020017f435000000000000000000000000000000000000000000000000000000000000081525060079080519060200190620000db929190620006a5565b5066038d7ea4c68000600855611388600b553415620000f957600080fd5b6001600060146101000a81548160ff021916908315150217905550336000806101000a81548173ffffffffffffffffffffffffffffffffffffffff021916908373ffffffffffffffffffffffffffffffffffffffff1602179055506200017a6000806000806000620001a56401000000000262002601176401000000009004565b506200019f6000806000806200036b6401000000000262001f28176401000000009004565b62000942565b6000620001b16200072c565b600063ffffffff8811151515620001c757600080fd5b63ffffffff8711151515620001db57600080fd5b61ffff8611151515620001ed57600080fd5b60e0604051908101604052808681526020014281526020016000815260200189815260200188815260200160008152602001878152509150600180548060010182816200023b91906200076a565b91600052602060002090600702016000849091909150600082015181600001556020820151816001015560408201518160020155606082015181600301556080820151816004015560a0820151816005015560c082015181600601555050506001808054905003905063ffffffff8111151515620002b857600080fd5b7fe6f1819515ac756027ac2607ca2442ef24fabea640f62afb9e2848050883e18784828a8a8a604051808673ffffffffffffffffffffffffffffffffffffffff1673ffffffffffffffffffffffffffffffffffffffff1681526020018581526020018481526020018381526020018281526020019550505050505060405180910390a16200035d600085836200054164010000000002620020f5176401000000009004565b809250505095945050505050565b620003756200079f565b610120604051908101604052808681526020018573ffffffffffffffffffffffffffffffffffffffff168152602001848152602001838152602001600187815481101515620003c057fe5b9060005260206000209060070201600101548152602001600187815481101515620003e757fe5b90600052602060002090600702016006015481526020016001878154811015156200040e57fe5b90600052602060002090600702016000015481526020016001878154811015156200043557fe5b90600052602060002090600702016003015481526020016001878154811015156200045c57fe5b90600052602060002090600702016004015481525090506009805480600101828162000489919062000802565b916000526020600020906009020160008390919091506000820151816000015560208201518160010160006101000a81548173ffffffffffffffffffffffffffffffffffffffff021916908373ffffffffffffffffffffffffffffffffffffffff16021790555060408201518160020155606082015181600301556080820151816004015560a0820151816005015560c0820151816006015560e0820151816007015561010082015181600801555050505050505050565b600260008373ffffffffffffffffffffffffffffffffffffffff1673ffffffffffffffffffffffffffffffffffffffff16815260200190815260200160002060008154809291906001019190505550816003600083815260200190815260200160002060006101000a81548173ffffffffffffffffffffffffffffffffffffffff021916908373ffffffffffffffffffffffffffffffffffffffff160217905550600073ffffffffffffffffffffffffffffffffffffffff168373ffffffffffffffffffffffffffffffffffffffff16141515620006a057600260008473ffffffffffffffffffffffffffffffffffffffff1673ffffffffffffffffffffffffffffffffffffffff16815260200190815260200160002060008154809291906001900391905055506004600082815260200190815260200160002060006101000a81549073ffffffffffffffffffffffffffffffffffffffff02191690555b505050565b828054600181600116156101000203166002900490600052602060002090601f016020900481019282601f10620006e857805160ff191683800117855562000719565b8280016001018555821562000719579182015b8281111562000718578251825591602001919060010190620006fb565b5b50905062000728919062000837565b5090565b60e060405190810160405280600081526020016000815260200160008152602001600081526020016000815260200160008152602001600081525090565b8154818355818115116200079a576007028160070283600052602060002091820191016200079991906200085f565b5b505050565b6101206040519081016040528060008152602001600073ffffffffffffffffffffffffffffffffffffffff168152602001600081526020016000815260200160008152602001600081526020016000815260200160008152602001600081525090565b8154818355818115116200083257600902816009028360005260206000209182019101620008319190620008b9565b5b505050565b6200085c91905b80821115620008585760008160009055506001016200083e565b5090565b90565b620008b691905b80821115620008b2576000808201600090556001820160009055600282016000905560038201600090556004820160009055600582016000905560068201600090555060070162000866565b5090565b90565b6200093f91905b808211156200093b576000808201600090556001820160006101000a81549073ffffffffffffffffffffffffffffffffffffffff0219169055600282016000905560038201600090556004820160009055600582016000905560068201600090556007820160009055600882016000905550600901620008c0565b5090565b90565b612a2880620009526000396000f3006060604052600436106101b6576000357c0100000000000000000000000000000000000000000000000000000000900463ffffffff168062eab0e3146101b85780630121683f1461021b57806303daa93d1461024757806306fdde031461025f578063095ea7b3146102ed5780631051db341461032f578063113fadb11461035c57806318160ddd146103b25780632098aea1146103db57806323b872dd1461043c57806336e40d131461049d5780633f4ba83a146104f257806344ca30651461050757806346c3a90a146105305780634dfff04f146105cb57806352af21191461060d5780635c975abb1461065a5780635fd8c710146106875780636352211e1461069c5780637004fb84146106ff57806370a082311461072b578063787a08a6146107785780638456cb59146107ad57806395d89b41146107c2578063a03211a014610850578063a7efbc8e1461088b578063a9059cbb146108c4578063b0c35c0514610906578063ba94042d1461092f578063c50398f914610992578063d3e6f49f146109c9578063d4fe84f914610a04578063d8eb3a9814610a46578063db129e4114610a5b578063e227f73214610a84575b005b34156101c357600080fd5b6101d96004808035906020019091905050610ae7565b604051808273ffffffffffffffffffffffffffffffffffffffff1673ffffffffffffffffffffffffffffffffffffffff16815260200191505060405180910390f35b341561022657600080fd5b6102456004808035906020019091908035906020019091905050610b1a565b005b61025d6004808035906020019091905050610bf0565b005b341561026a57600080fd5b610272610e10565b6040518080602001828103825283818151815260200191508051906020019080838360005b838110156102b2578082015181840152602081019050610297565b50505050905090810190601f1680156102df5780820380516001836020036101000a031916815260200191505b509250505060405180910390f35b34156102f857600080fd5b61032d600480803573ffffffffffffffffffffffffffffffffffffffff16906020019091908035906020019091905050610eae565b005b341561033a57600080fd5b610342610f90565b604051808215151515815260200191505060405180910390f35b341561036757600080fd5b61039c600480803573ffffffffffffffffffffffffffffffffffffffff16906020019091908035906020019091905050610f99565b6040518082815260200191505060405180910390f35b34156103bd57600080fd5b6103c5611050565b6040518082815260200191505060405180910390f35b34156103e657600080fd5b6103fc600480803590602001909190505061105f565b6040518088815260200187815260200186815260200185815260200184815260200183815260200182815260200197505050505050505060405180910390f35b341561044757600080fd5b61049b600480803573ffffffffffffffffffffffffffffffffffffffff1690602001909190803573ffffffffffffffffffffffffffffffffffffffff169060200190919080359060200190919050506110c7565b005b34156104a857600080fd5b6104b06111b1565b604051808273ffffffffffffffffffffffffffffffffffffffff1673ffffffffffffffffffffffffffffffffffffffff16815260200191505060405180910390f35b34156104fd57600080fd5b6105056111d6565b005b341561051257600080fd5b61051a611268565b6040518082815260200191505060405180910390f35b341561053b57600080fd5b610551600480803590602001909190505061126e565b604051808a81526020018973ffffffffffffffffffffffffffffffffffffffff1673ffffffffffffffffffffffffffffffffffffffff168152602001888152602001878152602001868152602001858152602001848152602001838152602001828152602001995050505050505050505060405180910390f35b34156105d657600080fd5b61060b600480803573ffffffffffffffffffffffffffffffffffffffff16906020019091908035906020019091905050611325565b005b341561061857600080fd5b610644600480803573ffffffffffffffffffffffffffffffffffffffff169060200190919050506113ac565b6040518082815260200191505060405180910390f35b341561066557600080fd5b61066d6113c4565b604051808215151515815260200191505060405180910390f35b341561069257600080fd5b61069a6113d7565b005b34156106a757600080fd5b6106bd60048080359060200190919050506114ac565b604051808273ffffffffffffffffffffffffffffffffffffffff1673ffffffffffffffffffffffffffffffffffffffff16815260200191505060405180910390f35b341561070a57600080fd5b6107296004808035906020019091908035906020019091905050611525565b005b341561073657600080fd5b610762600480803573ffffffffffffffffffffffffffffffffffffffff1690602001909190505061169f565b6040518082815260200191505060405180910390f35b341561078357600080fd5b61078b6116e8565b604051808263ffffffff1663ffffffff16815260200191505060405180910390f35b34156107b857600080fd5b6107c06116fe565b005b34156107cd57600080fd5b6107d5611792565b6040518080602001828103825283818151815260200191508051906020019080838360005b838110156108155780820151818401526020810190506107fa565b50505050905090810190601f1680156108425780820380516001836020036101000a031916815260200191505b509250505060405180910390f35b341561085b57600080fd5b6108716004808035906020019091905050611830565b604051808215151515815260200191505060405180910390f35b341561089657600080fd5b6108c2600480803573ffffffffffffffffffffffffffffffffffffffff169060200190919050506118c4565b005b34156108cf57600080fd5b610904600480803573ffffffffffffffffffffffffffffffffffffffff1690602001909190803590602001909190505061199e565b005b341561091157600080fd5b610919611a1a565b6040518082815260200191505060405180910390f35b341561093a57600080fd5b6109506004808035906020019091905050611a20565b604051808273ffffffffffffffffffffffffffffffffffffffff1673ffffffffffffffffffffffffffffffffffffffff16815260200191505060405180910390f35b341561099d57600080fd5b6109b36004808035906020019091905050611a53565b6040518082815260200191505060405180910390f35b34156109d457600080fd5b6109ea6004808035906020019091905050611bc9565b604051808215151515815260200191505060405180910390f35b3415610a0f57600080fd5b610a44600480803590602001909190803573ffffffffffffffffffffffffffffffffffffffff16906020019091905050611c5d565b005b3415610a5157600080fd5b610a59611d33565b005b3415610a6657600080fd5b610a6e611e63565b6040518082815260200191505060405180910390f35b3415610a8f57600080fd5b610aa56004808035906020019091905050611e69565b604051808273ffffffffffffffffffffffffffffffffffffffff1673ffffffffffffffffffffffffffffffffffffffff16815260200191505060405180910390f35b60036020528060005260406000206000915054906101000a900473ffffffffffffffffffffffffffffffffffffffff1681565b60008060149054906101000a900460ff16151515610b3757600080fd5b600183815481101515610b4657fe5b90600052602060002090600702019050610b603384611e9c565b1515610b6b57600080fd5b610bc68160e06040519081016040529081600082015481526020016001820154815260200160028201548152602001600382015481526020016004820154815260200160058201548152602001600682015481525050611f08565b1515610bd157600080fd5b610bdd83338442611f28565b62278d0042018160020181905550505050565b600080600080600060149054906101000a900460ff16151515610c1257600080fd5b6001600980549050038511151515610c2957600080fd5b600985815481101515610c3857fe5b9060005260206000209060090201935083600201543410151515610c5b57600080fd5b33600460008660000154815260200190815260200160002060006101000a81548173ffffffffffffffffffffffffffffffffffffffff021916908373ffffffffffffffffffffffffffffffffffffffff1602179055508360010160009054906101000a900473ffffffffffffffffffffffffffffffffffffffff1692508360020154915060018460000154815481101515610cf257fe5b90600052602060002090600702019050428160020181905550610d3e8460010160009054906101000a900473ffffffffffffffffffffffffffffffffffffffff163386600001546110c7565b600985815481101515610d4d57fe5b90600052602060002090600902016000808201600090556001820160006101000a81549073ffffffffffffffffffffffffffffffffffffffff02191690556002820160009055600382016000905560048201600090556005820160009055600682016000905560078201600090556008820160009055505081600a60008573ffffffffffffffffffffffffffffffffffffffff1673ffffffffffffffffffffffffffffffffffffffff168152602001908152602001600020819055505050505050565b60068054600181600116156101000203166002900480601f016020809104026020016040519081016040528092919081815260200182805460018160011615610100020316600290048015610ea65780601f10610e7b57610100808354040283529160200191610ea6565b820191906000526020600020905b815481529060010190602001808311610e8957829003601f168201915b505050505081565b600060149054906101000a900460ff16151515610eca57600080fd5b610ed43382611e9c565b1515610edf57600080fd5b816004600083815260200190815260200160002060006101000a81548173ffffffffffffffffffffffffffffffffffffffff021916908373ffffffffffffffffffffffffffffffffffffffff160217905550808273ffffffffffffffffffffffffffffffffffffffff163373ffffffffffffffffffffffffffffffffffffffff167f8c5be1e5ebec7d5bd14f71427d1e84f3dd0314c0f7b2291e5b200ac8c7c3b92560405160405180910390a45050565b60006001905090565b6000806000809150600190505b610fae611050565b81111515611043578473ffffffffffffffffffffffffffffffffffffffff166003600083815260200190815260200160002060009054906101000a900473ffffffffffffffffffffffffffffffffffffffff1673ffffffffffffffffffffffffffffffffffffffff161415611036578382141561102d57809250611048565b81806001019250505b8080600101915050610fa6565b600080fd5b505092915050565b60006001808054905003905090565b60008060008060008060008060018981548110151561107a57fe5b906000526020600020906007020190508060000154975080600101549650806002015495508060030154945080600401549350806005015492508060060154915050919395979092949650565b600060149054906101000a900460ff161515156110e357600080fd5b3373ffffffffffffffffffffffffffffffffffffffff166004600083815260200190815260200160002060009054906101000a900473ffffffffffffffffffffffffffffffffffffffff1673ffffffffffffffffffffffffffffffffffffffff1614151561115057600080fd5b61115a8382611e9c565b151561116557600080fd5b600073ffffffffffffffffffffffffffffffffffffffff168273ffffffffffffffffffffffffffffffffffffffff16141515156111a157600080fd5b6111ac8383836120f5565b505050565b6000809054906101000a900473ffffffffffffffffffffffffffffffffffffffff1681565b6000809054906101000a900473ffffffffffffffffffffffffffffffffffffffff1673ffffffffffffffffffffffffffffffffffffffff163373ffffffffffffffffffffffffffffffffffffffff1614151561123157600080fd5b600060149054906101000a900460ff16151561124c57600080fd5b60008060146101000a81548160ff021916908315150217905550565b600b5481565b600080600080600080600080600080600060149054906101000a900460ff1615151561129957600080fd5b60098b8154811015156112a857fe5b90600052602060002090600902019050806000015499508060010160009054906101000a900473ffffffffffffffffffffffffffffffffffffffff16985080600201549750806003015496508060040154955080600501549450806006015493508060070154925080600801549150509193959799909294969850565b600060149054906101000a900460ff1615151561134157600080fd5b61134b3382611e9c565b151561135657600080fd5b816005600083815260200190815260200160002060006101000a81548173ffffffffffffffffffffffffffffffffffffffff021916908373ffffffffffffffffffffffffffffffffffffffff1602179055505050565b600a6020528060005260406000206000915090505481565b600060149054906101000a900460ff1681565b6000809054906101000a900473ffffffffffffffffffffffffffffffffffffffff1673ffffffffffffffffffffffffffffffffffffffff163373ffffffffffffffffffffffffffffffffffffffff1614151561143257600080fd5b6000809054906101000a900473ffffffffffffffffffffffffffffffffffffffff1673ffffffffffffffffffffffffffffffffffffffff166108fc3073ffffffffffffffffffffffffffffffffffffffff16319081150290604051600060405180830381858888f1935050505015156114aa57600080fd5b565b60006003600083815260200190815260200160002060009054906101000a900473ffffffffffffffffffffffffffffffffffffffff169050600073ffffffffffffffffffffffffffffffffffffffff168173ffffffffffffffffffffffffffffffffffffffff161415151561152057600080fd5b919050565b600080600060149054906101000a900460ff1615151561154457600080fd5b61154e3385611e9c565b151561155957600080fd5b6115638484612258565b151561156e57600080fd5b60018481548110151561157d57fe5b9060005260206000209060070201915060018381548110151561159c57fe5b906000526020600020906007020190506116078260e0604051908101604052908160008201548152602001600182015481526020016002820154815260200160038201548152602001600482015481526020016005820154815260200160068201548152505061236b565b151561161257600080fd5b61166d8160e0604051908101604052908160008201548152602001600182015481526020016002820154815260200160038201548152602001600482015481526020016005820154815260200160068201548152505061236b565b151561167857600080fd5b6116848285838661238b565b151561168f57600080fd5b611699848461246c565b50505050565b6000600260008373ffffffffffffffffffffffffffffffffffffffff1673ffffffffffffffffffffffffffffffffffffffff168152602001908152602001600020549050919050565b600060159054906101000a900463ffffffff1681565b6000809054906101000a900473ffffffffffffffffffffffffffffffffffffffff1673ffffffffffffffffffffffffffffffffffffffff163373ffffffffffffffffffffffffffffffffffffffff1614151561175957600080fd5b600060149054906101000a900460ff1615151561177557600080fd5b6001600060146101000a81548160ff021916908315150217905550565b60078054600181600116156101000203166002900480601f0160208091040260200160405190810160405280929190818152602001828054600181600116156101000203166002900480156118285780601f106117fd57610100808354040283529160200191611828565b820191906000526020600020905b81548152906001019060200180831161180b57829003601f168201915b505050505081565b60008060008311151561184257600080fd5b60018381548110151561185157fe5b906000526020600020906007020190506118bc8160e06040519081016040529081600082015481526020016001820154815260200160028201548152602001600382015481526020016004820154815260200160058201548152602001600682015481525050611f08565b915050919050565b6000809054906101000a900473ffffffffffffffffffffffffffffffffffffffff1673ffffffffffffffffffffffffffffffffffffffff163373ffffffffffffffffffffffffffffffffffffffff1614151561191f57600080fd5b600073ffffffffffffffffffffffffffffffffffffffff168173ffffffffffffffffffffffffffffffffffffffff161415151561195b57600080fd5b806000806101000a81548173ffffffffffffffffffffffffffffffffffffffff021916908373ffffffffffffffffffffffffffffffffffffffff16021790555050565b600060149054906101000a900460ff161515156119ba57600080fd5b600073ffffffffffffffffffffffffffffffffffffffff168273ffffffffffffffffffffffffffffffffffffffff16141515156119f657600080fd5b611a003382611e9c565b1515611a0b57600080fd5b611a163383836120f5565b5050565b60085481565b60046020528060005260406000206000915054906101000a900473ffffffffffffffffffffffffffffffffffffffff1681565b600080600080600080600080600060149054906101000a900460ff16151515611a7b57600080fd5b600189815481101515611a8a57fe5b9060005260206000209060070201965086600501549550600186815481101515611ab057fe5b906000526020600020906007020194506000876001015414151515611ad457600080fd5b611b2f8760e060405190810160405290816000820154815260200160018201548152602001600282015481526020016003820154815260200160048201548152602001600582015481526020016006820154815250506125e0565b1515611b3a57600080fd5b86600601549350866006015485600601541115611b5957846006015493505b60028560000154886000015401811515611b6f57fe5b049250600360008a815260200190815260200160002060009054906101000a900473ffffffffffffffffffffffffffffffffffffffff169150611bb88987600187018686612601565b905080975050505050505050919050565b600080600083111515611bdb57600080fd5b600183815481101515611bea57fe5b90600052602060002090600702019050611c558160e0604051908101604052908160008201548152602001600182015481526020016002820154815260200160038201548152602001600482015481526020016005820154815260200160068201548152505061236b565b915050919050565b6000809054906101000a900473ffffffffffffffffffffffffffffffffffffffff1673ffffffffffffffffffffffffffffffffffffffff163373ffffffffffffffffffffffffffffffffffffffff16141515611cb857600080fd5b600073ffffffffffffffffffffffffffffffffffffffff168173ffffffffffffffffffffffffffffffffffffffff161415611cfb576000809054906101000a9050505b600b54600c54101515611d0d57600080fd5b600c60008154809291906001019190505550611d2e60008060008585612601565b505050565b600060149054906101000a900460ff16151515611d4f57600080fd5b600073ffffffffffffffffffffffffffffffffffffffff163373ffffffffffffffffffffffffffffffffffffffff1614151515611d8b57600080fd5b611d94336127a9565b1515611d9f57600080fd5b3373ffffffffffffffffffffffffffffffffffffffff166108fc600a60003373ffffffffffffffffffffffffffffffffffffffff1673ffffffffffffffffffffffffffffffffffffffff168152602001908152602001600020549081150290604051600060405180830381858888f193505050501515611e1e57600080fd5b600a60003373ffffffffffffffffffffffffffffffffffffffff1673ffffffffffffffffffffffffffffffffffffffff16815260200190815260200160002060009055565b600c5481565b60056020528060005260406000206000915054906101000a900473ffffffffffffffffffffffffffffffffffffffff1681565b60008273ffffffffffffffffffffffffffffffffffffffff166003600084815260200190815260200160002060009054906101000a900473ffffffffffffffffffffffffffffffffffffffff1673ffffffffffffffffffffffffffffffffffffffff1614905092915050565b6000808260a00151148015611f21575042826040015111155b9050919050565b611f3061281a565b610120604051908101604052808681526020018573ffffffffffffffffffffffffffffffffffffffff168152602001848152602001838152602001600187815481101515611f7a57fe5b9060005260206000209060070201600101548152602001600187815481101515611fa057fe5b9060005260206000209060070201600601548152602001600187815481101515611fc657fe5b9060005260206000209060070201600001548152602001600187815481101515611fec57fe5b906000526020600020906007020160030154815260200160018781548110151561201257fe5b90600052602060002090600702016004015481525090506009805480600101828161203d919061287d565b916000526020600020906009020160008390919091506000820151816000015560208201518160010160006101000a81548173ffffffffffffffffffffffffffffffffffffffff021916908373ffffffffffffffffffffffffffffffffffffffff16021790555060408201518160020155606082015181600301556080820151816004015560a0820151816005015560c0820151816006015560e0820151816007015561010082015181600801555050505050505050565b600260008373ffffffffffffffffffffffffffffffffffffffff1673ffffffffffffffffffffffffffffffffffffffff16815260200190815260200160002060008154809291906001019190505550816003600083815260200190815260200160002060006101000a81548173ffffffffffffffffffffffffffffffffffffffff021916908373ffffffffffffffffffffffffffffffffffffffff160217905550600073ffffffffffffffffffffffffffffffffffffffff168373ffffffffffffffffffffffffffffffffffffffff1614151561225357600260008473ffffffffffffffffffffffffffffffffffffffff1673ffffffffffffffffffffffffffffffffffffffff16815260200190815260200160002060008154809291906001900391905055506004600082815260200190815260200160002060006101000a81549073ffffffffffffffffffffffffffffffffffffffff02191690555b505050565b60008060006003600086815260200190815260200160002060009054906101000a900473ffffffffffffffffffffffffffffffffffffffff1691506003600085815260200190815260200160002060009054906101000a900473ffffffffffffffffffffffffffffffffffffffff1690508073ffffffffffffffffffffffffffffffffffffffff168273ffffffffffffffffffffffffffffffffffffffff16148061236157508173ffffffffffffffffffffffffffffffffffffffff166005600086815260200190815260200160002060009054906101000a900473ffffffffffffffffffffffffffffffffffffffff1673ffffffffffffffffffffffffffffffffffffffff16145b9250505092915050565b6000808260a00151148015612384575042826040015111155b9050919050565b60008184141561239e5760009050612464565b81856003015414806123b35750818560040154145b156123c15760009050612464565b83836003015414806123d65750838360040154145b156123e45760009050612464565b6000836003015414806123fb575060008560030154145b156124095760019050612464565b846003015483600301541480612426575084600401548360030154145b156124345760009050612464565b846003015483600401541480612451575084600401548360040154145b1561245f5760009050612464565b600190505b949350505050565b60008060018481548110151561247e57fe5b9060005260206000209060070201915060018381548110151561249d57fe5b906000526020600020906007020190508282600501819055506124bf826127f4565b6124c8816127f4565b6005600085815260200190815260200160002060006101000a81549073ffffffffffffffffffffffffffffffffffffffff02191690556005600084815260200190815260200160002060006101000a81549073ffffffffffffffffffffffffffffffffffffffff02191690557f6b4808987a5cecdf67d54ca5dc20664fafca80ef7195097800c12549245ab20d6003600086815260200190815260200160002060009054906101000a900473ffffffffffffffffffffffffffffffffffffffff168585604051808473ffffffffffffffffffffffffffffffffffffffff1673ffffffffffffffffffffffffffffffffffffffff168152602001838152602001828152602001935050505060405180910390a150505050565b6000808260a00151141580156125fa575042826040015111155b9050919050565b600061260b6128af565b600063ffffffff881115151561262057600080fd5b63ffffffff871115151561263357600080fd5b61ffff861115151561264457600080fd5b60e06040519081016040528086815260200142815260200160008152602001898152602001888152602001600081526020018781525091506001805480600101828161269091906128ed565b91600052602060002090600702016000849091909150600082015181600001556020820151816001015560408201518160020155606082015181600301556080820151816004015560a0820151816005015560c082015181600601555050506001808054905003905063ffffffff811115151561270c57600080fd5b7fe6f1819515ac756027ac2607ca2442ef24fabea640f62afb9e2848050883e18784828a8a8a604051808673ffffffffffffffffffffffffffffffffffffffff1673ffffffffffffffffffffffffffffffffffffffff1681526020018581526020018481526020018381526020018281526020019550505050505060405180910390a161279b600085836120f5565b809250505095945050505050565b600080600a60008473ffffffffffffffffffffffffffffffffffffffff1673ffffffffffffffffffffffffffffffffffffffff16815260200190815260200160002054119050919050565b600060159054906101000a900463ffffffff1663ffffffff164201816002018190555050565b6101206040519081016040528060008152602001600073ffffffffffffffffffffffffffffffffffffffff168152602001600081526020016000815260200160008152602001600081526020016000815260200160008152602001600081525090565b8154818355818115116128aa576009028160090283600052602060002091820191016128a9919061291f565b5b505050565b60e060405190810160405280600081526020016000815260200160008152602001600081526020016000815260200160008152602001600081525090565b81548183558181151161291a5760070281600702836000526020600020918201910161291991906129a5565b5b505050565b6129a291905b8082111561299e576000808201600090556001820160006101000a81549073ffffffffffffffffffffffffffffffffffffffff0219169055600282016000905560038201600090556004820160009055600582016000905560068201600090556007820160009055600882016000905550600901612925565b5090565b90565b6129f991905b808211156129f557600080820160009055600182016000905560028201600090556003820160009055600482016000905560058201600090556006820160009055506007016129ab565b5090565b905600a165627a7a723058209596b9106b622399ccb204df625f2c19d7d862a5758021c2ed82886d4c1470830029",
  "source": "pragma solidity ^0.4.18;\n\nimport \"./PuppyMinting.sol\";\n\ncontract PuppyCore is PuppyMinting {\n\n  function PuppyCore() public {\n    paused = true;\n    BossAddress = msg.sender;\n    _createPuppy(0, 0, 0, 0, address(0));\n    _createAuction(0,address(0),0,0);\n  }\n\n  function() external payable {}\n\n  function puppyOfOwnerByIndex(address _owner, uint256 _number) public view returns (uint256) {\n    uint256 count = 0;\n    for (uint256 i = 1; i <= totalSupply(); i++) {\n      if (puppyIndexToOwner[i] == _owner) {\n          if (count == _number) {\n            return i;\n          }\n          else {\n            count++;\n          }\n      }\n    }\n    revert();\n  }\n\n  function checkPuppyDetail(uint256 _puppyId)\n    public\n    view\n    returns(\n      uint256 genes,\n      uint256 birthtime,\n      uint256 cooldownEndTime,\n      uint256 matronId,\n      uint256 sireId,\n      uint256 siringWithId,\n      uint256 generation\n  ){\n    Puppy storage pup = puppies[_puppyId];\n    genes = pup.genes;\n    birthtime = pup.birthtime;\n    cooldownEndTime = pup.cooldownEndTime;\n    matronId = pup.matronId;\n    sireId = pup.sireId;\n    siringWithId = pup.siringWithId;\n    generation = pup.generation;\n  }\n\n\n}\n",
  "sourcePath": "/Users/Barry/Desktop/dapp/cryptopuppies/contracts/PuppyCore.sol",
  "compiler": {
    "name": "solc",
    "version": "0.4.18+commit.9cf6e910.Emscripten.clang"
  },
  "schemaVersion": "1.0.1",
  "updatedAt": "2018-05-17T22:10:07.213Z"
}