{
  "contractName": "PuppyOwnership",
  "abi": [
    {
      "constant": true,
      "inputs": [
        {
          "name": "",
          "type": "uint256"
        }
      ],
      "name": "puppyIndexToOwner",
      "outputs": [
        {
          "name": "",
          "type": "address"
        }
      ],
      "payable": false,
      "stateMutability": "view",
      "type": "function"
    },
    {
      "constant": true,
      "inputs": [],
      "name": "name",
      "outputs": [
        {
          "name": "",
          "type": "string"
        }
      ],
      "payable": false,
      "stateMutability": "view",
      "type": "function"
    },
    {
      "constant": false,
      "inputs": [
        {
          "name": "_to",
          "type": "address"
        },
        {
          "name": "_tokenId",
          "type": "uint256"
        }
      ],
      "name": "approve",
      "outputs": [],
      "payable": false,
      "stateMutability": "nonpayable",
      "type": "function"
    },
    {
      "constant": true,
      "inputs": [],
      "name": "implementsERC721",
      "outputs": [
        {
          "name": "",
          "type": "bool"
        }
      ],
      "payable": false,
      "stateMutability": "pure",
      "type": "function"
    },
    {
      "constant": true,
      "inputs": [],
      "name": "totalSupply",
      "outputs": [
        {
          "name": "total",
          "type": "uint256"
        }
      ],
      "payable": false,
      "stateMutability": "view",
      "type": "function"
    },
    {
      "constant": false,
      "inputs": [
        {
          "name": "_from",
          "type": "address"
        },
        {
          "name": "_to",
          "type": "address"
        },
        {
          "name": "_tokenId",
          "type": "uint256"
        }
      ],
      "name": "transferFrom",
      "outputs": [],
      "payable": false,
      "stateMutability": "nonpayable",
      "type": "function"
    },
    {
      "constant": true,
      "inputs": [],
      "name": "BossAddress",
      "outputs": [
        {
          "name": "",
          "type": "address"
        }
      ],
      "payable": false,
      "stateMutability": "view",
      "type": "function"
    },
    {
      "constant": false,
      "inputs": [],
      "name": "unpause",
      "outputs": [],
      "payable": false,
      "stateMutability": "nonpayable",
      "type": "function"
    },
    {
      "constant": true,
      "inputs": [],
      "name": "paused",
      "outputs": [
        {
          "name": "",
          "type": "bool"
        }
      ],
      "payable": false,
      "stateMutability": "view",
      "type": "function"
    },
    {
      "constant": false,
      "inputs": [],
      "name": "withdrawBalance",
      "outputs": [],
      "payable": false,
      "stateMutability": "nonpayable",
      "type": "function"
    },
    {
      "constant": true,
      "inputs": [
        {
          "name": "_tokenId",
          "type": "uint256"
        }
      ],
      "name": "ownerOf",
      "outputs": [
        {
          "name": "owner",
          "type": "address"
        }
      ],
      "payable": false,
      "stateMutability": "view",
      "type": "function"
    },
    {
      "constant": true,
      "inputs": [
        {
          "name": "_owner",
          "type": "address"
        }
      ],
      "name": "balanceOf",
      "outputs": [
        {
          "name": "",
          "type": "uint256"
        }
      ],
      "payable": false,
      "stateMutability": "view",
      "type": "function"
    },
    {
      "constant": true,
      "inputs": [],
      "name": "cooldown",
      "outputs": [
        {
          "name": "",
          "type": "uint32"
        }
      ],
      "payable": false,
      "stateMutability": "view",
      "type": "function"
    },
    {
      "constant": false,
      "inputs": [],
      "name": "pause",
      "outputs": [],
      "payable": false,
      "stateMutability": "nonpayable",
      "type": "function"
    },
    {
      "constant": true,
      "inputs": [],
      "name": "symbol",
      "outputs": [
        {
          "name": "",
          "type": "string"
        }
      ],
      "payable": false,
      "stateMutability": "view",
      "type": "function"
    },
    {
      "constant": false,
      "inputs": [
        {
          "name": "_newboss",
          "type": "address"
        }
      ],
      "name": "setBoss",
      "outputs": [],
      "payable": false,
      "stateMutability": "nonpayable",
      "type": "function"
    },
    {
      "constant": false,
      "inputs": [
        {
          "name": "_to",
          "type": "address"
        },
        {
          "name": "_tokenId",
          "type": "uint256"
        }
      ],
      "name": "transfer",
      "outputs": [],
      "payable": false,
      "stateMutability": "nonpayable",
      "type": "function"
    },
    {
      "constant": true,
      "inputs": [
        {
          "name": "",
          "type": "uint256"
        }
      ],
      "name": "puppyIndexToApproved",
      "outputs": [
        {
          "name": "",
          "type": "address"
        }
      ],
      "payable": false,
      "stateMutability": "view",
      "type": "function"
    },
    {
      "constant": true,
      "inputs": [
        {
          "name": "",
          "type": "uint256"
        }
      ],
      "name": "sireAllowToAddress",
      "outputs": [
        {
          "name": "",
          "type": "address"
        }
      ],
      "payable": false,
      "stateMutability": "view",
      "type": "function"
    },
    {
      "anonymous": false,
      "inputs": [
        {
          "indexed": true,
          "name": "from",
          "type": "address"
        },
        {
          "indexed": true,
          "name": "to",
          "type": "address"
        },
        {
          "indexed": true,
          "name": "tokenId",
          "type": "uint256"
        }
      ],
      "name": "Transfer",
      "type": "event"
    },
    {
      "anonymous": false,
      "inputs": [
        {
          "indexed": true,
          "name": "owner",
          "type": "address"
        },
        {
          "indexed": true,
          "name": "approved",
          "type": "address"
        },
        {
          "indexed": true,
          "name": "tokenId",
          "type": "uint256"
        }
      ],
      "name": "Approval",
      "type": "event"
    },
    {
      "anonymous": false,
      "inputs": [
        {
          "indexed": false,
          "name": "NewPuppyOwner",
          "type": "address"
        },
        {
          "indexed": false,
          "name": "PuppyId",
          "type": "uint256"
        },
        {
          "indexed": false,
          "name": "MatronId",
          "type": "uint256"
        },
        {
          "indexed": false,
          "name": "SireId",
          "type": "uint256"
        },
        {
          "indexed": false,
          "name": "Generation",
          "type": "uint256"
        }
      ],
      "name": "NewBrith",
      "type": "event"
    }
  ],
  "bytecode": "0x606060405260008060146101000a81548160ff021916908315150217905550601e600060156101000a81548163ffffffff021916908363ffffffff1602179055506040805190810160405280600d81526020017f43727970746f5075707069657300000000000000000000000000000000000000815250600690805190602001906200008d929190620000ee565b506040805190810160405280600281526020017f435000000000000000000000000000000000000000000000000000000000000081525060079080519060200190620000db929190620000ee565b503415620000e857600080fd5b6200019d565b828054600181600116156101000203166002900490600052602060002090601f016020900481019282601f106200013157805160ff191683800117855562000162565b8280016001018555821562000162579182015b828111156200016157825182559160200191906001019062000144565b5b50905062000171919062000175565b5090565b6200019a91905b80821115620001965760008160009055506001016200017c565b5090565b90565b61107f80620001ad6000396000f300606060405260043610610106576000357c0100000000000000000000000000000000000000000000000000000000900463ffffffff168062eab0e31461010b57806306fdde031461016e578063095ea7b3146101fc5780631051db341461023e57806318160ddd1461026b57806323b872dd1461029457806336e40d13146102f55780633f4ba83a1461034a5780635c975abb1461035f5780635fd8c7101461038c5780636352211e146103a157806370a0823114610404578063787a08a6146104515780638456cb591461048657806395d89b411461049b578063a7efbc8e14610529578063a9059cbb14610562578063ba94042d146105a4578063e227f73214610607575b600080fd5b341561011657600080fd5b61012c600480803590602001909190505061066a565b604051808273ffffffffffffffffffffffffffffffffffffffff1673ffffffffffffffffffffffffffffffffffffffff16815260200191505060405180910390f35b341561017957600080fd5b61018161069d565b6040518080602001828103825283818151815260200191508051906020019080838360005b838110156101c15780820151818401526020810190506101a6565b50505050905090810190601f1680156101ee5780820380516001836020036101000a031916815260200191505b509250505060405180910390f35b341561020757600080fd5b61023c600480803573ffffffffffffffffffffffffffffffffffffffff1690602001909190803590602001909190505061073b565b005b341561024957600080fd5b61025161081d565b604051808215151515815260200191505060405180910390f35b341561027657600080fd5b61027e610826565b6040518082815260200191505060405180910390f35b341561029f57600080fd5b6102f3600480803573ffffffffffffffffffffffffffffffffffffffff1690602001909190803573ffffffffffffffffffffffffffffffffffffffff16906020019091908035906020019091905050610835565b005b341561030057600080fd5b61030861091f565b604051808273ffffffffffffffffffffffffffffffffffffffff1673ffffffffffffffffffffffffffffffffffffffff16815260200191505060405180910390f35b341561035557600080fd5b61035d610944565b005b341561036a57600080fd5b6103726109d6565b604051808215151515815260200191505060405180910390f35b341561039757600080fd5b61039f6109e9565b005b34156103ac57600080fd5b6103c26004808035906020019091905050610abe565b604051808273ffffffffffffffffffffffffffffffffffffffff1673ffffffffffffffffffffffffffffffffffffffff16815260200191505060405180910390f35b341561040f57600080fd5b61043b600480803573ffffffffffffffffffffffffffffffffffffffff16906020019091905050610b37565b6040518082815260200191505060405180910390f35b341561045c57600080fd5b610464610b80565b604051808263ffffffff1663ffffffff16815260200191505060405180910390f35b341561049157600080fd5b610499610b96565b005b34156104a657600080fd5b6104ae610c2a565b6040518080602001828103825283818151815260200191508051906020019080838360005b838110156104ee5780820151818401526020810190506104d3565b50505050905090810190601f16801561051b5780820380516001836020036101000a031916815260200191505b509250505060405180910390f35b341561053457600080fd5b610560600480803573ffffffffffffffffffffffffffffffffffffffff16906020019091905050610cc8565b005b341561056d57600080fd5b6105a2600480803573ffffffffffffffffffffffffffffffffffffffff16906020019091908035906020019091905050610da2565b005b34156105af57600080fd5b6105c56004808035906020019091905050610e1e565b604051808273ffffffffffffffffffffffffffffffffffffffff1673ffffffffffffffffffffffffffffffffffffffff16815260200191505060405180910390f35b341561061257600080fd5b6106286004808035906020019091905050610e51565b604051808273ffffffffffffffffffffffffffffffffffffffff1673ffffffffffffffffffffffffffffffffffffffff16815260200191505060405180910390f35b60036020528060005260406000206000915054906101000a900473ffffffffffffffffffffffffffffffffffffffff1681565b60068054600181600116156101000203166002900480601f0160208091040260200160405190810160405280929190818152602001828054600181600116156101000203166002900480156107335780601f1061070857610100808354040283529160200191610733565b820191906000526020600020905b81548152906001019060200180831161071657829003601f168201915b505050505081565b600060149054906101000a900460ff1615151561075757600080fd5b6107613382610e84565b151561076c57600080fd5b816004600083815260200190815260200160002060006101000a81548173ffffffffffffffffffffffffffffffffffffffff021916908373ffffffffffffffffffffffffffffffffffffffff160217905550808273ffffffffffffffffffffffffffffffffffffffff163373ffffffffffffffffffffffffffffffffffffffff167f8c5be1e5ebec7d5bd14f71427d1e84f3dd0314c0f7b2291e5b200ac8c7c3b92560405160405180910390a45050565b60006001905090565b60006001808054905003905090565b600060149054906101000a900460ff1615151561085157600080fd5b3373ffffffffffffffffffffffffffffffffffffffff166004600083815260200190815260200160002060009054906101000a900473ffffffffffffffffffffffffffffffffffffffff1673ffffffffffffffffffffffffffffffffffffffff161415156108be57600080fd5b6108c88382610e84565b15156108d357600080fd5b600073ffffffffffffffffffffffffffffffffffffffff168273ffffffffffffffffffffffffffffffffffffffff161415151561090f57600080fd5b61091a838383610ef0565b505050565b6000809054906101000a900473ffffffffffffffffffffffffffffffffffffffff1681565b6000809054906101000a900473ffffffffffffffffffffffffffffffffffffffff1673ffffffffffffffffffffffffffffffffffffffff163373ffffffffffffffffffffffffffffffffffffffff1614151561099f57600080fd5b600060149054906101000a900460ff1615156109ba57600080fd5b60008060146101000a81548160ff021916908315150217905550565b600060149054906101000a900460ff1681565b6000809054906101000a900473ffffffffffffffffffffffffffffffffffffffff1673ffffffffffffffffffffffffffffffffffffffff163373ffffffffffffffffffffffffffffffffffffffff16141515610a4457600080fd5b6000809054906101000a900473ffffffffffffffffffffffffffffffffffffffff1673ffffffffffffffffffffffffffffffffffffffff166108fc3073ffffffffffffffffffffffffffffffffffffffff16319081150290604051600060405180830381858888f193505050501515610abc57600080fd5b565b60006003600083815260200190815260200160002060009054906101000a900473ffffffffffffffffffffffffffffffffffffffff169050600073ffffffffffffffffffffffffffffffffffffffff168173ffffffffffffffffffffffffffffffffffffffff1614151515610b3257600080fd5b919050565b6000600260008373ffffffffffffffffffffffffffffffffffffffff1673ffffffffffffffffffffffffffffffffffffffff168152602001908152602001600020549050919050565b600060159054906101000a900463ffffffff1681565b6000809054906101000a900473ffffffffffffffffffffffffffffffffffffffff1673ffffffffffffffffffffffffffffffffffffffff163373ffffffffffffffffffffffffffffffffffffffff16141515610bf157600080fd5b600060149054906101000a900460ff16151515610c0d57600080fd5b6001600060146101000a81548160ff021916908315150217905550565b60078054600181600116156101000203166002900480601f016020809104026020016040519081016040528092919081815260200182805460018160011615610100020316600290048015610cc05780601f10610c9557610100808354040283529160200191610cc0565b820191906000526020600020905b815481529060010190602001808311610ca357829003601f168201915b505050505081565b6000809054906101000a900473ffffffffffffffffffffffffffffffffffffffff1673ffffffffffffffffffffffffffffffffffffffff163373ffffffffffffffffffffffffffffffffffffffff16141515610d2357600080fd5b600073ffffffffffffffffffffffffffffffffffffffff168173ffffffffffffffffffffffffffffffffffffffff1614151515610d5f57600080fd5b806000806101000a81548173ffffffffffffffffffffffffffffffffffffffff021916908373ffffffffffffffffffffffffffffffffffffffff16021790555050565b600060149054906101000a900460ff16151515610dbe57600080fd5b600073ffffffffffffffffffffffffffffffffffffffff168273ffffffffffffffffffffffffffffffffffffffff1614151515610dfa57600080fd5b610e043382610e84565b1515610e0f57600080fd5b610e1a338383610ef0565b5050565b60046020528060005260406000206000915054906101000a900473ffffffffffffffffffffffffffffffffffffffff1681565b60056020528060005260406000206000915054906101000a900473ffffffffffffffffffffffffffffffffffffffff1681565b60008273ffffffffffffffffffffffffffffffffffffffff166003600084815260200190815260200160002060009054906101000a900473ffffffffffffffffffffffffffffffffffffffff1673ffffffffffffffffffffffffffffffffffffffff1614905092915050565b600260008373ffffffffffffffffffffffffffffffffffffffff1673ffffffffffffffffffffffffffffffffffffffff16815260200190815260200160002060008154809291906001019190505550816003600083815260200190815260200160002060006101000a81548173ffffffffffffffffffffffffffffffffffffffff021916908373ffffffffffffffffffffffffffffffffffffffff160217905550600073ffffffffffffffffffffffffffffffffffffffff168373ffffffffffffffffffffffffffffffffffffffff1614151561104e57600260008473ffffffffffffffffffffffffffffffffffffffff1673ffffffffffffffffffffffffffffffffffffffff16815260200190815260200160002060008154809291906001900391905055506004600082815260200190815260200160002060006101000a81549073ffffffffffffffffffffffffffffffffffffffff02191690555b5050505600a165627a7a7230582008aed8f04ca75921e9ca9b984aa5fc7419b6921accd1702ea6e1d0098c4489a00029",
  "source": "pragma solidity ^0.4.18;\n\nimport \"./PuppyBase.sol\";\nimport \"./ERC721Draft.sol\";\n\ncontract PuppyOwnership is PuppyBase, ERC721 {\n\n  string public name = \"CryptoPuppies\";\n  string public symbol = \"CP\";\n\n  function _own(address _claimant, uint256 _tokenId) internal view returns (bool) {\n    return puppyIndexToOwner[_tokenId] == _claimant;\n  }\n\n  function implementsERC721() public pure returns (bool){\n    return true;\n  }\n\n  function totalSupply() public view returns (uint256 total){\n    return puppies.length - 1;\n  }\n\n  function balanceOf(address _owner) public view returns (uint256) {\n    return ownershipTokenCount[_owner];\n  }\n\n  function ownerOf(uint256 _tokenId) public view returns (address owner){\n    owner = puppyIndexToOwner[_tokenId];\n    require(owner != address(0));\n  }\n\n  function approve(address _to, uint256 _tokenId) public whenNotPaused{\n    require(_own(msg.sender, _tokenId));\n    puppyIndexToApproved[_tokenId] = _to;\n    Approval(msg.sender, _to, _tokenId);\n  }\n\n  function transfer(address _to, uint256 _tokenId) public whenNotPaused{\n    require(_to != address(0));\n    require(_own(msg.sender, _tokenId));\n    _transfer(msg.sender, _to, _tokenId);\n  }\n\n  function transferFrom(address _from, address _to, uint256 _tokenId) public whenNotPaused{\n    require(puppyIndexToApproved[_tokenId] == msg.sender);\n    require(_own(_from, _tokenId));\n    require(_to != address(0));\n    _transfer(_from, _to, _tokenId);\n  }\n}\n",
  "sourcePath": "/Users/Barry/Desktop/dapp/cryptopuppies/contracts/PuppyOwnership.sol",
  "compiler": {
    "name": "solc",
    "version": "0.4.18+commit.9cf6e910.Emscripten.clang"
  },
  "schemaVersion": "1.0.1",
  "updatedAt": "2018-05-17T22:10:07.218Z"
}