{
  "contractName": "HomelessCore",
  "abi": [
    {
      "constant": true,
      "inputs": [
        {
          "name": "_homeless",
          "type": "address"
        }
      ],
      "name": "ReputationChecking",
      "outputs": [
        {
          "name": "REP",
          "type": "uint256"
        }
      ],
      "payable": false,
      "stateMutability": "view",
      "type": "function"
    },
    {
      "constant": true,
      "inputs": [
        {
          "name": "_homeless",
          "type": "address"
        }
      ],
      "name": "getHash",
      "outputs": [
        {
          "name": "",
          "type": "address"
        }
      ],
      "payable": false,
      "stateMutability": "view",
      "type": "function"
    },
    {
      "constant": true,
      "inputs": [
        {
          "name": "_id",
          "type": "uint256"
        }
      ],
      "name": "ReputationChecking",
      "outputs": [
        {
          "name": "REP",
          "type": "uint256"
        }
      ],
      "payable": false,
      "stateMutability": "view",
      "type": "function"
    },
    {
      "constant": false,
      "inputs": [
        {
          "name": "_id",
          "type": "uint256"
        }
      ],
      "name": "BadBehaviour",
      "outputs": [],
      "payable": false,
      "stateMutability": "nonpayable",
      "type": "function"
    },
    {
      "constant": true,
      "inputs": [],
      "name": "checkMyAccount",
      "outputs": [
        {
          "name": "",
          "type": "uint256"
        }
      ],
      "payable": false,
      "stateMutability": "view",
      "type": "function"
    },
    {
      "constant": true,
      "inputs": [],
      "name": "companyAddress",
      "outputs": [
        {
          "name": "",
          "type": "address"
        }
      ],
      "payable": false,
      "stateMutability": "view",
      "type": "function"
    },
    {
      "constant": true,
      "inputs": [],
      "name": "organizerTwoAddress",
      "outputs": [
        {
          "name": "",
          "type": "address"
        }
      ],
      "payable": false,
      "stateMutability": "view",
      "type": "function"
    },
    {
      "constant": true,
      "inputs": [
        {
          "name": "_homeless",
          "type": "address"
        }
      ],
      "name": "checkAccountID",
      "outputs": [
        {
          "name": "",
          "type": "uint256"
        }
      ],
      "payable": false,
      "stateMutability": "view",
      "type": "function"
    },
    {
      "constant": false,
      "inputs": [],
      "name": "withdrawBalance",
      "outputs": [],
      "payable": false,
      "stateMutability": "nonpayable",
      "type": "function"
    },
    {
      "constant": false,
      "inputs": [
        {
          "name": "_newAddress",
          "type": "address"
        }
      ],
      "name": "changeOrganizerTwoAddress",
      "outputs": [],
      "payable": false,
      "stateMutability": "nonpayable",
      "type": "function"
    },
    {
      "constant": true,
      "inputs": [],
      "name": "organizerOneAddress",
      "outputs": [
        {
          "name": "",
          "type": "address"
        }
      ],
      "payable": false,
      "stateMutability": "view",
      "type": "function"
    },
    {
      "constant": false,
      "inputs": [
        {
          "name": "_id",
          "type": "uint256"
        },
        {
          "name": "_hashString",
          "type": "address"
        }
      ],
      "name": "createNewHash",
      "outputs": [],
      "payable": false,
      "stateMutability": "nonpayable",
      "type": "function"
    },
    {
      "constant": false,
      "inputs": [
        {
          "name": "_id",
          "type": "uint256"
        }
      ],
      "name": "GoodToSociety",
      "outputs": [],
      "payable": false,
      "stateMutability": "nonpayable",
      "type": "function"
    },
    {
      "constant": false,
      "inputs": [
        {
          "name": "_newAddress",
          "type": "address"
        }
      ],
      "name": "changeOrganizerOneAddress",
      "outputs": [],
      "payable": false,
      "stateMutability": "nonpayable",
      "type": "function"
    },
    {
      "constant": true,
      "inputs": [
        {
          "name": "",
          "type": "uint256"
        }
      ],
      "name": "organizers",
      "outputs": [
        {
          "name": "",
          "type": "address"
        }
      ],
      "payable": false,
      "stateMutability": "view",
      "type": "function"
    },
    {
      "constant": true,
      "inputs": [],
      "name": "HowManyAccout",
      "outputs": [
        {
          "name": "",
          "type": "uint256"
        }
      ],
      "payable": false,
      "stateMutability": "view",
      "type": "function"
    },
    {
      "constant": true,
      "inputs": [],
      "name": "governmentAddress",
      "outputs": [
        {
          "name": "",
          "type": "address"
        }
      ],
      "payable": false,
      "stateMutability": "view",
      "type": "function"
    },
    {
      "constant": false,
      "inputs": [
        {
          "name": "_newGovermentAddress",
          "type": "address"
        }
      ],
      "name": "changeGovermentAddress",
      "outputs": [],
      "payable": false,
      "stateMutability": "nonpayable",
      "type": "function"
    },
    {
      "constant": false,
      "inputs": [
        {
          "name": "_newCompanyAddress",
          "type": "address"
        }
      ],
      "name": "changeCompanyAddress",
      "outputs": [],
      "payable": false,
      "stateMutability": "nonpayable",
      "type": "function"
    },
    {
      "constant": false,
      "inputs": [
        {
          "name": "_newAccount",
          "type": "address"
        }
      ],
      "name": "addNewIdentification",
      "outputs": [
        {
          "name": "newAccountId",
          "type": "uint256"
        }
      ],
      "payable": false,
      "stateMutability": "nonpayable",
      "type": "function"
    },
    {
      "inputs": [],
      "payable": false,
      "stateMutability": "nonpayable",
      "type": "constructor"
    },
    {
      "payable": true,
      "stateMutability": "payable",
      "type": "fallback"
    }
  ],
  "bytecode": "0x60606040526040805190810160405280600260009054906101000a900473ffffffffffffffffffffffffffffffffffffffff1673ffffffffffffffffffffffffffffffffffffffff1673ffffffffffffffffffffffffffffffffffffffff168152602001600360009054906101000a900473ffffffffffffffffffffffffffffffffffffffff1673ffffffffffffffffffffffffffffffffffffffff1673ffffffffffffffffffffffffffffffffffffffff168152506004906002620000c7929190620001dd565b503415620000d457600080fd5b336000806101000a81548173ffffffffffffffffffffffffffffffffffffffff021916908373ffffffffffffffffffffffffffffffffffffffff16021790555033600160006101000a81548173ffffffffffffffffffffffffffffffffffffffff021916908373ffffffffffffffffffffffffffffffffffffffff16021790555033600260006101000a81548173ffffffffffffffffffffffffffffffffffffffff021916908373ffffffffffffffffffffffffffffffffffffffff16021790555033600360006101000a81548173ffffffffffffffffffffffffffffffffffffffff021916908373ffffffffffffffffffffffffffffffffffffffff160217905550620002b2565b82805482825590600052602060002090810192821562000259579160200282015b82811115620002585782518260006101000a81548173ffffffffffffffffffffffffffffffffffffffff021916908373ffffffffffffffffffffffffffffffffffffffff16021790555091602001919060010190620001fe565b5b5090506200026891906200026c565b5090565b620002af91905b80821115620002ab57600081816101000a81549073ffffffffffffffffffffffffffffffffffffffff02191690555060010162000273565b5090565b90565b6116a180620002c26000396000f300606060405260043610610112576000357c0100000000000000000000000000000000000000000000000000000000900463ffffffff16806301f6dfcb146101145780631da0b8fc14610161578063344c2cf7146101da5780633da3c7ce146102115780633e8bd2291461023457806353e1ead91461025d57806355c49dbc146102b25780635d22f06b146103075780635fd8c710146103545780636d8466601461036957806370ed9ef0146103a25780637880e5bb146103f75780638357369f1461043957806385c175bd1461045c578063a4c8be1e14610495578063c410e28f146104f8578063d570ab3414610521578063e78c5dce14610576578063f363f5ed146105af578063f9f4ec9d146105e8575b005b341561011f57600080fd5b61014b600480803573ffffffffffffffffffffffffffffffffffffffff16906020019091905050610635565b6040518082815260200191505060405180910390f35b341561016c57600080fd5b610198600480803573ffffffffffffffffffffffffffffffffffffffff16906020019091905050610792565b604051808273ffffffffffffffffffffffffffffffffffffffff1673ffffffffffffffffffffffffffffffffffffffff16815260200191505060405180910390f35b34156101e557600080fd5b6101fb60048080359060200190919050506108a6565b6040518082815260200191505060405180910390f35b341561021c57600080fd5b6102326004808035906020019091905050610a36565b005b341561023f57600080fd5b610247610b74565b6040518082815260200191505060405180910390f35b341561026857600080fd5b610270610bbb565b604051808273ffffffffffffffffffffffffffffffffffffffff1673ffffffffffffffffffffffffffffffffffffffff16815260200191505060405180910390f35b34156102bd57600080fd5b6102c5610be0565b604051808273ffffffffffffffffffffffffffffffffffffffff1673ffffffffffffffffffffffffffffffffffffffff16815260200191505060405180910390f35b341561031257600080fd5b61033e600480803573ffffffffffffffffffffffffffffffffffffffff16906020019091905050610c06565b6040518082815260200191505060405180910390f35b341561035f57600080fd5b610367610cab565b005b341561037457600080fd5b6103a0600480803573ffffffffffffffffffffffffffffffffffffffff16906020019091905050610d82565b005b34156103ad57600080fd5b6103b5610e5e565b604051808273ffffffffffffffffffffffffffffffffffffffff1673ffffffffffffffffffffffffffffffffffffffff16815260200191505060405180910390f35b341561040257600080fd5b610437600480803590602001909190803573ffffffffffffffffffffffffffffffffffffffff16906020019091905050610e84565b005b341561044457600080fd5b61045a6004808035906020019091905050610f72565b005b341561046757600080fd5b610493600480803573ffffffffffffffffffffffffffffffffffffffff169060200190919050506110af565b005b34156104a057600080fd5b6104b6600480803590602001909190505061118b565b604051808273ffffffffffffffffffffffffffffffffffffffff1673ffffffffffffffffffffffffffffffffffffffff16815260200191505060405180910390f35b341561050357600080fd5b61050b6111ca565b6040518082815260200191505060405180910390f35b341561052c57600080fd5b610534611238565b604051808273ffffffffffffffffffffffffffffffffffffffff1673ffffffffffffffffffffffffffffffffffffffff16815260200191505060405180910390f35b341561058157600080fd5b6105ad600480803573ffffffffffffffffffffffffffffffffffffffff1690602001909190505061125e565b005b34156105ba57600080fd5b6105e6600480803573ffffffffffffffffffffffffffffffffffffffff1690602001909190505061133a565b005b34156105f357600080fd5b61061f600480803573ffffffffffffffffffffffffffffffffffffffff16906020019091905050611414565b6040518082815260200191505060405180910390f35b6000600260009054906101000a900473ffffffffffffffffffffffffffffffffffffffff1673ffffffffffffffffffffffffffffffffffffffff163373ffffffffffffffffffffffffffffffffffffffff1614151561069357600080fd5b600160009054906101000a900473ffffffffffffffffffffffffffffffffffffffff1673ffffffffffffffffffffffffffffffffffffffff163373ffffffffffffffffffffffffffffffffffffffff161415156106ef57600080fd5b600360009054906101000a900473ffffffffffffffffffffffffffffffffffffffff1673ffffffffffffffffffffffffffffffffffffffff163373ffffffffffffffffffffffffffffffffffffffff1614151561074b57600080fd5b600660008373ffffffffffffffffffffffffffffffffffffffff1673ffffffffffffffffffffffffffffffffffffffff168152602001908152602001600020549050919050565b6000600160009054906101000a900473ffffffffffffffffffffffffffffffffffffffff1673ffffffffffffffffffffffffffffffffffffffff163373ffffffffffffffffffffffffffffffffffffffff161415156107f057600080fd5b600073ffffffffffffffffffffffffffffffffffffffff168273ffffffffffffffffffffffffffffffffffffffff161415151561082c57600080fd5b60076000600860008573ffffffffffffffffffffffffffffffffffffffff1673ffffffffffffffffffffffffffffffffffffffff16815260200190815260200160002054815260200190815260200160002060009054906101000a900473ffffffffffffffffffffffffffffffffffffffff169050919050565b6000600260009054906101000a900473ffffffffffffffffffffffffffffffffffffffff1673ffffffffffffffffffffffffffffffffffffffff163373ffffffffffffffffffffffffffffffffffffffff1614151561090457600080fd5b600160009054906101000a900473ffffffffffffffffffffffffffffffffffffffff1673ffffffffffffffffffffffffffffffffffffffff163373ffffffffffffffffffffffffffffffffffffffff1614151561096057600080fd5b600360009054906101000a900473ffffffffffffffffffffffffffffffffffffffff1673ffffffffffffffffffffffffffffffffffffffff163373ffffffffffffffffffffffffffffffffffffffff161415156109bc57600080fd5b600660006009600085815260200190815260200160002060009054906101000a900473ffffffffffffffffffffffffffffffffffffffff1673ffffffffffffffffffffffffffffffffffffffff1673ffffffffffffffffffffffffffffffffffffffff168152602001908152602001600020549050919050565b600260009054906101000a900473ffffffffffffffffffffffffffffffffffffffff1673ffffffffffffffffffffffffffffffffffffffff163373ffffffffffffffffffffffffffffffffffffffff16141515610a9257600080fd5b600160009054906101000a900473ffffffffffffffffffffffffffffffffffffffff1673ffffffffffffffffffffffffffffffffffffffff163373ffffffffffffffffffffffffffffffffffffffff16141515610aee57600080fd5b600660006009600084815260200190815260200160002060009054906101000a900473ffffffffffffffffffffffffffffffffffffffff1673ffffffffffffffffffffffffffffffffffffffff1673ffffffffffffffffffffffffffffffffffffffff168152602001908152602001600020600081548092919060019003919050555050565b6000600660003373ffffffffffffffffffffffffffffffffffffffff1673ffffffffffffffffffffffffffffffffffffffff16815260200190815260200160002054905090565b6000809054906101000a900473ffffffffffffffffffffffffffffffffffffffff1681565b600360009054906101000a900473ffffffffffffffffffffffffffffffffffffffff1681565b6000600160009054906101000a900473ffffffffffffffffffffffffffffffffffffffff1673ffffffffffffffffffffffffffffffffffffffff163373ffffffffffffffffffffffffffffffffffffffff16141515610c6457600080fd5b600860008373ffffffffffffffffffffffffffffffffffffffff1673ffffffffffffffffffffffffffffffffffffffff168152602001908152602001600020549050919050565b600160009054906101000a900473ffffffffffffffffffffffffffffffffffffffff1673ffffffffffffffffffffffffffffffffffffffff163373ffffffffffffffffffffffffffffffffffffffff16141515610d0757600080fd5b600160009054906101000a900473ffffffffffffffffffffffffffffffffffffffff1673ffffffffffffffffffffffffffffffffffffffff166108fc3073ffffffffffffffffffffffffffffffffffffffff16319081150290604051600060405180830381858888f193505050501515610d8057600080fd5b565b600160009054906101000a900473ffffffffffffffffffffffffffffffffffffffff1673ffffffffffffffffffffffffffffffffffffffff163373ffffffffffffffffffffffffffffffffffffffff16141515610dde57600080fd5b600073ffffffffffffffffffffffffffffffffffffffff168173ffffffffffffffffffffffffffffffffffffffff1614151515610e1a57600080fd5b80600360006101000a81548173ffffffffffffffffffffffffffffffffffffffff021916908373ffffffffffffffffffffffffffffffffffffffff16021790555050565b600260009054906101000a900473ffffffffffffffffffffffffffffffffffffffff1681565b600160009054906101000a900473ffffffffffffffffffffffffffffffffffffffff1673ffffffffffffffffffffffffffffffffffffffff163373ffffffffffffffffffffffffffffffffffffffff16141515610ee057600080fd5b600073ffffffffffffffffffffffffffffffffffffffff168173ffffffffffffffffffffffffffffffffffffffff1614151515610f1c57600080fd5b806007600084815260200190815260200160002060006101000a81548173ffffffffffffffffffffffffffffffffffffffff021916908373ffffffffffffffffffffffffffffffffffffffff1602179055505050565b600360009054906101000a900473ffffffffffffffffffffffffffffffffffffffff1673ffffffffffffffffffffffffffffffffffffffff163373ffffffffffffffffffffffffffffffffffffffff16141515610fce57600080fd5b600160009054906101000a900473ffffffffffffffffffffffffffffffffffffffff1673ffffffffffffffffffffffffffffffffffffffff163373ffffffffffffffffffffffffffffffffffffffff1614151561102a57600080fd5b600660006009600084815260200190815260200160002060009054906101000a900473ffffffffffffffffffffffffffffffffffffffff1673ffffffffffffffffffffffffffffffffffffffff1673ffffffffffffffffffffffffffffffffffffffff1681526020019081526020016000206000815480929190600101919050555050565b600160009054906101000a900473ffffffffffffffffffffffffffffffffffffffff1673ffffffffffffffffffffffffffffffffffffffff163373ffffffffffffffffffffffffffffffffffffffff1614151561110b57600080fd5b600073ffffffffffffffffffffffffffffffffffffffff168173ffffffffffffffffffffffffffffffffffffffff161415151561114757600080fd5b80600260006101000a81548173ffffffffffffffffffffffffffffffffffffffff021916908373ffffffffffffffffffffffffffffffffffffffff16021790555050565b60048181548110151561119a57fe5b90600052602060002090016000915054906101000a900473ffffffffffffffffffffffffffffffffffffffff1681565b600080600160009054906101000a900473ffffffffffffffffffffffffffffffffffffffff1673ffffffffffffffffffffffffffffffffffffffff163373ffffffffffffffffffffffffffffffffffffffff1614151561122957600080fd5b60058054905090508091505090565b600160009054906101000a900473ffffffffffffffffffffffffffffffffffffffff1681565b600160009054906101000a900473ffffffffffffffffffffffffffffffffffffffff1673ffffffffffffffffffffffffffffffffffffffff163373ffffffffffffffffffffffffffffffffffffffff161415156112ba57600080fd5b600073ffffffffffffffffffffffffffffffffffffffff168173ffffffffffffffffffffffffffffffffffffffff16141515156112f657600080fd5b80600160006101000a81548173ffffffffffffffffffffffffffffffffffffffff021916908373ffffffffffffffffffffffffffffffffffffffff16021790555050565b6000809054906101000a900473ffffffffffffffffffffffffffffffffffffffff1673ffffffffffffffffffffffffffffffffffffffff163373ffffffffffffffffffffffffffffffffffffffff1614151561139557600080fd5b600073ffffffffffffffffffffffffffffffffffffffff168173ffffffffffffffffffffffffffffffffffffffff16141515156113d157600080fd5b806000806101000a81548173ffffffffffffffffffffffffffffffffffffffff021916908373ffffffffffffffffffffffffffffffffffffffff16021790555050565b600080600160009054906101000a900473ffffffffffffffffffffffffffffffffffffffff1673ffffffffffffffffffffffffffffffffffffffff163373ffffffffffffffffffffffffffffffffffffffff1614151561147357600080fd5b600073ffffffffffffffffffffffffffffffffffffffff168373ffffffffffffffffffffffffffffffffffffffff16141515156114af57600080fd5b6114b8836114dc565b60058054905090506114ca8184611542565b6114d3836115dc565b80915050919050565b600580548060010182816114f09190611624565b9160005260206000209001600083909190916101000a81548173ffffffffffffffffffffffffffffffffffffffff021916908373ffffffffffffffffffffffffffffffffffffffff1602179055505050565b81600860008373ffffffffffffffffffffffffffffffffffffffff1673ffffffffffffffffffffffffffffffffffffffff16815260200190815260200160002081905550806009600084815260200190815260200160002060006101000a81548173ffffffffffffffffffffffffffffffffffffffff021916908373ffffffffffffffffffffffffffffffffffffffff1602179055505050565b6014600660008373ffffffffffffffffffffffffffffffffffffffff1673ffffffffffffffffffffffffffffffffffffffff1681526020019081526020016000208190555050565b81548183558181151161164b5781836000526020600020918201910161164a9190611650565b5b505050565b61167291905b8082111561166e576000816000905550600101611656565b5090565b905600a165627a7a723058205a774841c2c6994235f16a34cbd5e89fde35704aba9f0940d6782c740c7df3fa0029",
  "source": "pragma solidity ^0.4.18;\n\ncontract HomelessAccessControl {\n\n    address public companyAddress;\n    address public governmentAddress;\n    address public organizerOneAddress;\n    address public organizerTwoAddress;\n    address [] public organizers = [organizerOneAddress, organizerTwoAddress];\n\n\n    modifier onlyCompany() {\n      require(msg.sender == companyAddress);\n      _;\n    }\n\n    modifier onlyOrganizerOne() {\n      require(msg.sender == organizerOneAddress);\n      _;\n    }\n\n    modifier onlyOrganizerTwo() {\n      require(msg.sender == organizerTwoAddress);\n      _;\n    }\n\n    modifier onlyGovernment() {\n      require(msg.sender == governmentAddress);\n      _;\n    }\n\n    function changeCompanyAddress(address _newCompanyAddress) public onlyCompany {\n      require(_newCompanyAddress != address(0));\n      companyAddress = _newCompanyAddress;\n    }\n\n    function changeGovermentAddress(address _newGovermentAddress) public onlyGovernment {\n      require(_newGovermentAddress != address(0));\n      governmentAddress = _newGovermentAddress;\n    }\n\n    function changeOrganizerOneAddress(address _newAddress) public onlyGovernment {\n      require(_newAddress != address(0));\n      organizerOneAddress = _newAddress;\n    }\n\n    function changeOrganizerTwoAddress(address _newAddress) public onlyGovernment {\n      require(_newAddress != address(0));\n      organizerTwoAddress = _newAddress;\n    }\n    function withdrawBalance() external onlyGovernment {\n          governmentAddress.transfer(this.balance);\n    }\n}\n\ncontract InitialSystem is HomelessAccessControl{\n    address[]  addresses;\n    mapping (address => uint256) accountBalance;\n    mapping (uint256 => address) myHash;\n    mapping (address => uint256) accountID;\n    mapping (uint256 => address) idToAddress;\n\n    function _addNewAddress(address _new) internal {\n        addresses.push(_new);\n    }\n\n    function _dataStoring(uint256 _id, address _add) internal {\n        accountID[_add] = _id;\n        idToAddress[_id] = _add;\n    }\n\n    function _giveToken(address _add) internal {\n        accountBalance[_add] = 20;\n    }\n\n    function addNewIdentification (address _newAccount) public onlyGovernment returns(uint256 newAccountId) {\n        require(_newAccount != address(0));\n        _addNewAddress(_newAccount);\n\n        uint256 AccountId = addresses.length ;\n\n        _dataStoring(AccountId, _newAccount);\n\n        _giveToken(_newAccount);\n        return AccountId;\n    }\n\n    function createNewHash(uint256 _id, address _hashString) public onlyGovernment {\n        require(_hashString != address(0));\n        myHash[_id] = _hashString;\n    }\n}\n\ncontract TokenSystem is InitialSystem {\n\n    function checkMyAccount() public view returns (uint256) {\n      return accountBalance[msg.sender];\n    }\n\n    function BadBehaviour(uint256 _id) public onlyOrganizerOne onlyGovernment {\n      accountBalance[idToAddress[_id]] --;\n    }\n\n    function GoodToSociety (uint256 _id) public onlyOrganizerTwo onlyGovernment {\n      accountBalance[idToAddress[_id]] ++;\n    }\n\n    function ReputationChecking (uint256 _id) public onlyOrganizerOne onlyGovernment onlyOrganizerTwo view returns(uint REP){\n      return accountBalance[idToAddress[_id]];\n    }\n\n    function ReputationChecking (address _homeless) public onlyOrganizerOne onlyGovernment onlyOrganizerTwo view returns(uint REP){\n      return accountBalance[_homeless];\n    }\n\n\n}\n\ncontract HomelessCore is TokenSystem {\n\n    function HomelessCore() public {\n        companyAddress = msg.sender;\n        governmentAddress = msg.sender;\n        organizerOneAddress = msg.sender;\n        organizerTwoAddress = msg.sender;\n    }\n\n    function() external payable {}\n\n    function getHash(address _homeless) public view  onlyGovernment returns (address) {\n        require(_homeless != address(0));\n        return myHash[accountID[_homeless]];\n    }\n\n    function HowManyAccout() public view onlyGovernment returns (uint256){\n        uint256 AccountId = addresses.length ;\n        return AccountId;\n    }\n\n    function checkAccountID(address _homeless) public view onlyGovernment returns (uint256) {\n        return accountID[_homeless];\n    }\n}\n",
  "sourcePath": "/Users/Barry/Desktop/blockathon/contracts/Homeless.sol",
  "compiler": {
    "name": "solc",
    "version": "0.4.18+commit.9cf6e910.Emscripten.clang"
  },
  "schemaVersion": "1.0.1",
  "updatedAt": "2018-05-27T16:49:22.967Z"
}